{
  "contractName": "SNFT",
  "abi": [
    {
      "inputs": [
        {
          "internalType": "string",
          "name": "name",
          "type": "string"
        },
        {
          "internalType": "string",
          "name": "symbol",
          "type": "string"
        }
      ],
      "stateMutability": "nonpayable",
      "type": "constructor"
    },
    {
      "anonymous": false,
      "inputs": [
        {
          "indexed": true,
          "internalType": "address",
          "name": "owner",
          "type": "address"
        },
        {
          "indexed": true,
          "internalType": "address",
          "name": "approved",
          "type": "address"
        },
        {
          "indexed": true,
          "internalType": "uint256",
          "name": "tokenId",
          "type": "uint256"
        }
      ],
      "name": "Approval",
      "type": "event"
    },
    {
      "anonymous": false,
      "inputs": [
        {
          "indexed": true,
          "internalType": "address",
          "name": "owner",
          "type": "address"
        },
        {
          "indexed": true,
          "internalType": "address",
          "name": "operator",
          "type": "address"
        },
        {
          "indexed": false,
          "internalType": "bool",
          "name": "approved",
          "type": "bool"
        }
      ],
      "name": "ApprovalForAll",
      "type": "event"
    },
    {
      "anonymous": false,
      "inputs": [
        {
          "indexed": true,
          "internalType": "address",
          "name": "from",
          "type": "address"
        },
        {
          "indexed": true,
          "internalType": "address",
          "name": "to",
          "type": "address"
        },
        {
          "indexed": true,
          "internalType": "uint256",
          "name": "tokenId",
          "type": "uint256"
        }
      ],
      "name": "Transfer",
      "type": "event"
    },
    {
      "inputs": [
        {
          "internalType": "address",
          "name": "to",
          "type": "address"
        },
        {
          "internalType": "uint256",
          "name": "tokenId",
          "type": "uint256"
        }
      ],
      "name": "approve",
      "outputs": [],
      "stateMutability": "nonpayable",
      "type": "function"
    },
    {
      "inputs": [
        {
          "internalType": "address",
          "name": "owner",
          "type": "address"
        }
      ],
      "name": "balanceOf",
      "outputs": [
        {
          "internalType": "uint256",
          "name": "",
          "type": "uint256"
        }
      ],
      "stateMutability": "view",
      "type": "function",
      "constant": true
    },
    {
      "inputs": [
        {
          "internalType": "uint256",
          "name": "tokenId",
          "type": "uint256"
        }
      ],
      "name": "getApproved",
      "outputs": [
        {
          "internalType": "address",
          "name": "",
          "type": "address"
        }
      ],
      "stateMutability": "view",
      "type": "function",
      "constant": true
    },
    {
      "inputs": [
        {
          "internalType": "address",
          "name": "owner",
          "type": "address"
        },
        {
          "internalType": "address",
          "name": "operator",
          "type": "address"
        }
      ],
      "name": "isApprovedForAll",
      "outputs": [
        {
          "internalType": "bool",
          "name": "",
          "type": "bool"
        }
      ],
      "stateMutability": "view",
      "type": "function",
      "constant": true
    },
    {
      "inputs": [],
      "name": "name",
      "outputs": [
        {
          "internalType": "string",
          "name": "",
          "type": "string"
        }
      ],
      "stateMutability": "view",
      "type": "function",
      "constant": true
    },
    {
      "inputs": [
        {
          "internalType": "uint256",
          "name": "tokenId",
          "type": "uint256"
        }
      ],
      "name": "ownerOf",
      "outputs": [
        {
          "internalType": "address",
          "name": "",
          "type": "address"
        }
      ],
      "stateMutability": "view",
      "type": "function",
      "constant": true
    },
    {
      "inputs": [
        {
          "internalType": "address",
          "name": "from",
          "type": "address"
        },
        {
          "internalType": "address",
          "name": "to",
          "type": "address"
        },
        {
          "internalType": "uint256",
          "name": "tokenId",
          "type": "uint256"
        }
      ],
      "name": "safeTransferFrom",
      "outputs": [],
      "stateMutability": "nonpayable",
      "type": "function"
    },
    {
      "inputs": [
        {
          "internalType": "address",
          "name": "from",
          "type": "address"
        },
        {
          "internalType": "address",
          "name": "to",
          "type": "address"
        },
        {
          "internalType": "uint256",
          "name": "tokenId",
          "type": "uint256"
        },
        {
          "internalType": "bytes",
          "name": "data",
          "type": "bytes"
        }
      ],
      "name": "safeTransferFrom",
      "outputs": [],
      "stateMutability": "nonpayable",
      "type": "function"
    },
    {
      "inputs": [
        {
          "internalType": "address",
          "name": "operator",
          "type": "address"
        },
        {
          "internalType": "bool",
          "name": "approved",
          "type": "bool"
        }
      ],
      "name": "setApprovalForAll",
      "outputs": [],
      "stateMutability": "nonpayable",
      "type": "function"
    },
    {
      "inputs": [
        {
          "internalType": "bytes4",
          "name": "interfaceId",
          "type": "bytes4"
        }
      ],
      "name": "supportsInterface",
      "outputs": [
        {
          "internalType": "bool",
          "name": "",
          "type": "bool"
        }
      ],
      "stateMutability": "view",
      "type": "function",
      "constant": true
    },
    {
      "inputs": [],
      "name": "symbol",
      "outputs": [
        {
          "internalType": "string",
          "name": "",
          "type": "string"
        }
      ],
      "stateMutability": "view",
      "type": "function",
      "constant": true
    },
    {
      "inputs": [
        {
          "internalType": "address",
          "name": "from",
          "type": "address"
        },
        {
          "internalType": "address",
          "name": "to",
          "type": "address"
        },
        {
          "internalType": "uint256",
          "name": "tokenId",
          "type": "uint256"
        }
      ],
      "name": "transferFrom",
      "outputs": [],
      "stateMutability": "nonpayable",
      "type": "function"
    },
    {
      "inputs": [
        {
          "internalType": "uint256",
          "name": "tokenId",
          "type": "uint256"
        }
      ],
      "name": "tokenURI",
      "outputs": [
        {
          "internalType": "string",
          "name": "",
          "type": "string"
        }
      ],
      "stateMutability": "view",
      "type": "function",
      "constant": true
    },
    {
      "inputs": [
        {
          "internalType": "string",
          "name": "_tokenURI",
          "type": "string"
        }
      ],
      "name": "createToken",
      "outputs": [
        {
          "internalType": "uint256",
          "name": "",
          "type": "uint256"
        }
      ],
      "stateMutability": "nonpayable",
      "type": "function"
    },
    {
      "inputs": [
        {
          "internalType": "address",
          "name": "owner",
          "type": "address"
        },
        {
          "internalType": "uint256",
          "name": "index",
          "type": "uint256"
        }
      ],
      "name": "tokenOfOwnerByIndex",
      "outputs": [
        {
          "internalType": "uint256",
          "name": "",
          "type": "uint256"
        }
      ],
      "stateMutability": "view",
      "type": "function",
      "constant": true
    },
    {
      "inputs": [],
      "name": "totalSupply",
      "outputs": [
        {
          "internalType": "uint256",
          "name": "",
          "type": "uint256"
        }
      ],
      "stateMutability": "view",
      "type": "function",
      "constant": true
    },
    {
      "inputs": [
        {
          "internalType": "uint256",
          "name": "index",
          "type": "uint256"
        }
      ],
      "name": "tokenByIndex",
      "outputs": [
        {
          "internalType": "uint256",
          "name": "",
          "type": "uint256"
        }
      ],
      "stateMutability": "view",
      "type": "function",
      "constant": true
    }
  ],
  "bytecode": "0x60806040523480156200001157600080fd5b50604051620035fc380380620035fc8339818101604052810190620000379190620001fa565b818181600090816200004a9190620004ca565b5080600190816200005c9190620004ca565b5050505050620005b1565b6000604051905090565b600080fd5b600080fd5b600080fd5b600080fd5b6000601f19601f8301169050919050565b7f4e487b7100000000000000000000000000000000000000000000000000000000600052604160045260246000fd5b620000d08262000085565b810181811067ffffffffffffffff82111715620000f257620000f162000096565b5b80604052505050565b60006200010762000067565b9050620001158282620000c5565b919050565b600067ffffffffffffffff82111562000138576200013762000096565b5b620001438262000085565b9050602081019050919050565b60005b838110156200017057808201518184015260208101905062000153565b60008484015250505050565b6000620001936200018d846200011a565b620000fb565b905082815260208101848484011115620001b257620001b162000080565b5b620001bf84828562000150565b509392505050565b600082601f830112620001df57620001de6200007b565b5b8151620001f18482602086016200017c565b91505092915050565b6000806040838503121562000214576200021362000071565b5b600083015167ffffffffffffffff81111562000235576200023462000076565b5b6200024385828601620001c7565b925050602083015167ffffffffffffffff81111562000267576200026662000076565b5b6200027585828601620001c7565b9150509250929050565b600081519050919050565b7f4e487b7100000000000000000000000000000000000000000000000000000000600052602260045260246000fd5b60006002820490506001821680620002d257607f821691505b602082108103620002e857620002e76200028a565b5b50919050565b60008190508160005260206000209050919050565b60006020601f8301049050919050565b600082821b905092915050565b600060088302620003527fffffffffffffffffffffffffffffffffffffffffffffffffffffffffffffffff8262000313565b6200035e868362000313565b95508019841693508086168417925050509392505050565b6000819050919050565b6000819050919050565b6000620003ab620003a56200039f8462000376565b62000380565b62000376565b9050919050565b6000819050919050565b620003c7836200038a565b620003df620003d682620003b2565b84845462000320565b825550505050565b600090565b620003f6620003e7565b62000403818484620003bc565b505050565b5b818110156200042b576200041f600082620003ec565b60018101905062000409565b5050565b601f8211156200047a576200044481620002ee565b6200044f8462000303565b810160208510156200045f578190505b620004776200046e8562000303565b83018262000408565b50505b505050565b600082821c905092915050565b60006200049f600019846008026200047f565b1980831691505092915050565b6000620004ba83836200048c565b9150826002028217905092915050565b620004d5826200027f565b67ffffffffffffffff811115620004f157620004f062000096565b5b620004fd8254620002b9565b6200050a8282856200042f565b600060209050601f8311600181146200054257600084156200052d578287015190505b620005398582620004ac565b865550620005a9565b601f1984166200055286620002ee565b60005b828110156200057c5784890151825560018201915060208501945060208101905062000555565b868310156200059c578489015162000598601f8916826200048c565b8355505b6001600288020188555050505b505050505050565b61303b80620005c16000396000f3fe608060405234801561001057600080fd5b506004361061010b5760003560e01c806345576f94116100a257806395d89b411161007157806395d89b41146102f0578063a22cb4651461030e578063b88d4fde1461032a578063c87b56dd14610346578063e985e9c5146103765761010b565b806345576f94146102305780634f6ccce7146102605780636352211e1461029057806370a08231146102c05761010b565b806318160ddd116100de57806318160ddd146101aa57806323b872dd146101c85780632f745c59146101e457806342842e0e146102145761010b565b806301ffc9a71461011057806306fdde0314610140578063081812fc1461015e578063095ea7b31461018e575b600080fd5b61012a60048036038101906101259190611cc3565b6103a6565b6040516101379190611d0b565b60405180910390f35b610148610488565b6040516101559190611db6565b60405180910390f35b61017860048036038101906101739190611e0e565b61051a565b6040516101859190611e7c565b60405180910390f35b6101a860048036038101906101a39190611ec3565b610560565b005b6101b2610677565b6040516101bf9190611f12565b60405180910390f35b6101e260048036038101906101dd9190611f2d565b610684565b005b6101fe60048036038101906101f99190611ec3565b6106e4565b60405161020b9190611f12565b60405180910390f35b61022e60048036038101906102299190611f2d565b610789565b005b61024a600480360381019061024591906120b5565b6107a9565b6040516102579190611f12565b60405180910390f35b61027a60048036038101906102759190611e0e565b610845565b6040516102879190611f12565b60405180910390f35b6102aa60048036038101906102a59190611e0e565b6108b6565b6040516102b79190611e7c565b60405180910390f35b6102da60048036038101906102d591906120fe565b61093c565b6040516102e79190611f12565b60405180910390f35b6102f86109f3565b6040516103059190611db6565b60405180910390f35b61032860048036038101906103239190612157565b610a85565b005b610344600480360381019061033f9190612238565b610a9b565b005b610360600480360381019061035b9190611e0e565b610afd565b60405161036d9190611db6565b60405180910390f35b610390600480360381019061038b91906122bb565b610bb1565b60405161039d9190611d0b565b60405180910390f35b60007f80ac58cd000000000000000000000000000000000000000000000000000000007bffffffffffffffffffffffffffffffffffffffffffffffffffffffff1916827bffffffffffffffffffffffffffffffffffffffffffffffffffffffff1916148061047157507f5b5e139f000000000000000000000000000000000000000000000000000000007bffffffffffffffffffffffffffffffffffffffffffffffffffffffff1916827bffffffffffffffffffffffffffffffffffffffffffffffffffffffff1916145b80610481575061048082610c45565b5b9050919050565b6060600080546104979061232a565b80601f01602080910402602001604051908101604052809291908181526020018280546104c39061232a565b80156105105780601f106104e557610100808354040283529160200191610510565b820191906000526020600020905b8154815290600101906020018083116104f357829003601f168201915b5050505050905090565b600061052582610caf565b6004600083815260200190815260200160002060009054906101000a900473ffffffffffffffffffffffffffffffffffffffff169050919050565b600061056b826108b6565b90508073ffffffffffffffffffffffffffffffffffffffff168373ffffffffffffffffffffffffffffffffffffffff16036105db576040517f08c379a00000000000000000000000000000000000000000000000000000000081526004016105d2906123cd565b60405180910390fd5b8073ffffffffffffffffffffffffffffffffffffffff166105fa610cfa565b73ffffffffffffffffffffffffffffffffffffffff161480610629575061062881610623610cfa565b610bb1565b5b610668576040517f08c379a000000000000000000000000000000000000000000000000000000000815260040161065f9061245f565b60405180910390fd5b6106728383610d02565b505050565b6000600a80549050905090565b61069561068f610cfa565b82610dbb565b6106d4576040517f08c379a00000000000000000000000000000000000000000000000000000000081526004016106cb906124f1565b60405180910390fd5b6106df838383610e50565b505050565b60006106ef8361093c565b8210610730576040517f08c379a000000000000000000000000000000000000000000000000000000000815260040161072790612583565b60405180910390fd5b600860008473ffffffffffffffffffffffffffffffffffffffff1673ffffffffffffffffffffffffffffffffffffffff168152602001908152602001600020600083815260200190815260200160002054905092915050565b6107a483838360405180602001604052806000815250610a9b565b505050565b600060016107b63361093c565b11156107f7576040517f08c379a00000000000000000000000000000000000000000000000000000000081526004016107ee90612615565b60405180910390fd5b6108016006611149565b600061080d600661115f565b9050610819338261116d565b604051806020016040528060008152505183511461083c5761083b818461138a565b5b80915050919050565b600061084f610677565b8210610890576040517f08c379a0000000000000000000000000000000000000000000000000000000008152600401610887906126a7565b60405180910390fd5b600a82815481106108a4576108a36126c7565b5b90600052602060002001549050919050565b6000806108c2836113f7565b9050600073ffffffffffffffffffffffffffffffffffffffff168173ffffffffffffffffffffffffffffffffffffffff1603610933576040517f08c379a000000000000000000000000000000000000000000000000000000000815260040161092a90612742565b60405180910390fd5b80915050919050565b60008073ffffffffffffffffffffffffffffffffffffffff168273ffffffffffffffffffffffffffffffffffffffff16036109ac576040517f08c379a00000000000000000000000000000000000000000000000000000000081526004016109a3906127d4565b60405180910390fd5b600360008373ffffffffffffffffffffffffffffffffffffffff1673ffffffffffffffffffffffffffffffffffffffff168152602001908152602001600020549050919050565b606060018054610a029061232a565b80601f0160208091040260200160405190810160405280929190818152602001828054610a2e9061232a565b8015610a7b5780601f10610a5057610100808354040283529160200191610a7b565b820191906000526020600020905b815481529060010190602001808311610a5e57829003601f168201915b5050505050905090565b610a97610a90610cfa565b8383611434565b5050565b610aac610aa6610cfa565b83610dbb565b610aeb576040517f08c379a0000000000000000000000000000000000000000000000000000000008152600401610ae2906124f1565b60405180910390fd5b610af7848484846115a0565b50505050565b6060610b0882610caf565b6000600760008481526020019081526020016000208054610b289061232a565b80601f0160208091040260200160405190810160405280929190818152602001828054610b549061232a565b8015610ba15780601f10610b7657610100808354040283529160200191610ba1565b820191906000526020600020905b815481529060010190602001808311610b8457829003601f168201915b5050505050905080915050919050565b6000600560008473ffffffffffffffffffffffffffffffffffffffff1673ffffffffffffffffffffffffffffffffffffffff16815260200190815260200160002060008373ffffffffffffffffffffffffffffffffffffffff1673ffffffffffffffffffffffffffffffffffffffff16815260200190815260200160002060009054906101000a900460ff16905092915050565b60007f01ffc9a7000000000000000000000000000000000000000000000000000000007bffffffffffffffffffffffffffffffffffffffffffffffffffffffff1916827bffffffffffffffffffffffffffffffffffffffffffffffffffffffff1916149050919050565b610cb8816115fc565b610cf7576040517f08c379a0000000000000000000000000000000000000000000000000000000008152600401610cee90612742565b60405180910390fd5b50565b600033905090565b816004600083815260200190815260200160002060006101000a81548173ffffffffffffffffffffffffffffffffffffffff021916908373ffffffffffffffffffffffffffffffffffffffff160217905550808273ffffffffffffffffffffffffffffffffffffffff16610d75836108b6565b73ffffffffffffffffffffffffffffffffffffffff167f8c5be1e5ebec7d5bd14f71427d1e84f3dd0314c0f7b2291e5b200ac8c7c3b92560405160405180910390a45050565b600080610dc7836108b6565b90508073ffffffffffffffffffffffffffffffffffffffff168473ffffffffffffffffffffffffffffffffffffffff161480610e095750610e088185610bb1565b5b80610e4757508373ffffffffffffffffffffffffffffffffffffffff16610e2f8461051a565b73ffffffffffffffffffffffffffffffffffffffff16145b91505092915050565b8273ffffffffffffffffffffffffffffffffffffffff16610e70826108b6565b73ffffffffffffffffffffffffffffffffffffffff1614610ec6576040517f08c379a0000000000000000000000000000000000000000000000000000000008152600401610ebd90612866565b60405180910390fd5b600073ffffffffffffffffffffffffffffffffffffffff168273ffffffffffffffffffffffffffffffffffffffff1603610f35576040517f08c379a0000000000000000000000000000000000000000000000000000000008152600401610f2c906128f8565b60405180910390fd5b610f42838383600161163d565b8273ffffffffffffffffffffffffffffffffffffffff16610f62826108b6565b73ffffffffffffffffffffffffffffffffffffffff1614610fb8576040517f08c379a0000000000000000000000000000000000000000000000000000000008152600401610faf90612866565b60405180910390fd5b6004600082815260200190815260200160002060006101000a81549073ffffffffffffffffffffffffffffffffffffffff02191690556001600360008573ffffffffffffffffffffffffffffffffffffffff1673ffffffffffffffffffffffffffffffffffffffff168152602001908152602001600020600082825403925050819055506001600360008473ffffffffffffffffffffffffffffffffffffffff1673ffffffffffffffffffffffffffffffffffffffff16815260200190815260200160002060008282540192505081905550816002600083815260200190815260200160002060006101000a81548173ffffffffffffffffffffffffffffffffffffffff021916908373ffffffffffffffffffffffffffffffffffffffff160217905550808273ffffffffffffffffffffffffffffffffffffffff168473ffffffffffffffffffffffffffffffffffffffff167fddf252ad1be2c89b69c2b068fc378daa952ba7f163c4a11628f55a4df523b3ef60405160405180910390a4611144838383600161179b565b505050565b6001816000016000828254019250508190555050565b600081600001549050919050565b600073ffffffffffffffffffffffffffffffffffffffff168273ffffffffffffffffffffffffffffffffffffffff16036111dc576040517f08c379a00000000000000000000000000000000000000000000000000000000081526004016111d390612964565b60405180910390fd5b6111e5816115fc565b15611225576040517f08c379a000000000000000000000000000000000000000000000000000000000815260040161121c906129d0565b60405180910390fd5b61123360008383600161163d565b61123c816115fc565b1561127c576040517f08c379a0000000000000000000000000000000000000000000000000000000008152600401611273906129d0565b60405180910390fd5b6001600360008473ffffffffffffffffffffffffffffffffffffffff1673ffffffffffffffffffffffffffffffffffffffff16815260200190815260200160002060008282540192505081905550816002600083815260200190815260200160002060006101000a81548173ffffffffffffffffffffffffffffffffffffffff021916908373ffffffffffffffffffffffffffffffffffffffff160217905550808273ffffffffffffffffffffffffffffffffffffffff16600073ffffffffffffffffffffffffffffffffffffffff167fddf252ad1be2c89b69c2b068fc378daa952ba7f163c4a11628f55a4df523b3ef60405160405180910390a461138660008383600161179b565b5050565b611393826115fc565b6113d2576040517f08c379a00000000000000000000000000000000000000000000000000000000081526004016113c990612a62565b60405180910390fd5b806007600084815260200190815260200160002090816113f29190612c2e565b505050565b60006002600083815260200190815260200160002060009054906101000a900473ffffffffffffffffffffffffffffffffffffffff169050919050565b8173ffffffffffffffffffffffffffffffffffffffff168373ffffffffffffffffffffffffffffffffffffffff16036114a2576040517f08c379a000000000000000000000000000000000000000000000000000000000815260040161149990612d4c565b60405180910390fd5b80600560008573ffffffffffffffffffffffffffffffffffffffff1673ffffffffffffffffffffffffffffffffffffffff16815260200190815260200160002060008473ffffffffffffffffffffffffffffffffffffffff1673ffffffffffffffffffffffffffffffffffffffff16815260200190815260200160002060006101000a81548160ff0219169083151502179055508173ffffffffffffffffffffffffffffffffffffffff168373ffffffffffffffffffffffffffffffffffffffff167f17307eab39ab6107e8899845ad3d59bd9653f200f220920489ca2b5937696c31836040516115939190611d0b565b60405180910390a3505050565b6115ab848484610e50565b6115b7848484846117a1565b6115f6576040517f08c379a00000000000000000000000000000000000000000000000000000000081526004016115ed90612dde565b60405180910390fd5b50505050565b60008073ffffffffffffffffffffffffffffffffffffffff1661161e836113f7565b73ffffffffffffffffffffffffffffffffffffffff1614159050919050565b61164984848484611928565b600181111561168d576040517f08c379a000000000000000000000000000000000000000000000000000000000815260040161168490612e70565b60405180910390fd5b6000829050600073ffffffffffffffffffffffffffffffffffffffff168573ffffffffffffffffffffffffffffffffffffffff16036116d4576116cf8161192e565b611713565b8373ffffffffffffffffffffffffffffffffffffffff168573ffffffffffffffffffffffffffffffffffffffff1614611712576117118582611977565b5b5b600073ffffffffffffffffffffffffffffffffffffffff168473ffffffffffffffffffffffffffffffffffffffff16036117555761175081611ae4565b611794565b8473ffffffffffffffffffffffffffffffffffffffff168473ffffffffffffffffffffffffffffffffffffffff1614611793576117928482611bb5565b5b5b5050505050565b50505050565b60006117c28473ffffffffffffffffffffffffffffffffffffffff16611c34565b1561191b578373ffffffffffffffffffffffffffffffffffffffff1663150b7a026117eb610cfa565b8786866040518563ffffffff1660e01b815260040161180d9493929190612ee5565b6020604051808303816000875af192505050801561184957506040513d601f19601f820116820180604052508101906118469190612f46565b60015b6118cb573d8060008114611879576040519150601f19603f3d011682016040523d82523d6000602084013e61187e565b606091505b5060008151036118c3576040517f08c379a00000000000000000000000000000000000000000000000000000000081526004016118ba90612dde565b60405180910390fd5b805181602001fd5b63150b7a0260e01b7bffffffffffffffffffffffffffffffffffffffffffffffffffffffff1916817bffffffffffffffffffffffffffffffffffffffffffffffffffffffff191614915050611920565b600190505b949350505050565b50505050565b600a80549050600b600083815260200190815260200160002081905550600a81908060018154018082558091505060019003906000526020600020016000909190919091505550565b600060016119848461093c565b61198e9190612fa2565b9050600060096000848152602001908152602001600020549050818114611a73576000600860008673ffffffffffffffffffffffffffffffffffffffff1673ffffffffffffffffffffffffffffffffffffffff168152602001908152602001600020600084815260200190815260200160002054905080600860008773ffffffffffffffffffffffffffffffffffffffff1673ffffffffffffffffffffffffffffffffffffffff168152602001908152602001600020600084815260200190815260200160002081905550816009600083815260200190815260200160002081905550505b6009600084815260200190815260200160002060009055600860008573ffffffffffffffffffffffffffffffffffffffff1673ffffffffffffffffffffffffffffffffffffffff16815260200190815260200160002060008381526020019081526020016000206000905550505050565b60006001600a80549050611af89190612fa2565b90506000600b60008481526020019081526020016000205490506000600a8381548110611b2857611b276126c7565b5b9060005260206000200154905080600a8381548110611b4a57611b496126c7565b5b906000526020600020018190555081600b600083815260200190815260200160002081905550600b600085815260200190815260200160002060009055600a805480611b9957611b98612fd6565b5b6001900381819060005260206000200160009055905550505050565b6000611bc08361093c565b905081600860008573ffffffffffffffffffffffffffffffffffffffff1673ffffffffffffffffffffffffffffffffffffffff168152602001908152602001600020600083815260200190815260200160002081905550806009600084815260200190815260200160002081905550505050565b6000808273ffffffffffffffffffffffffffffffffffffffff163b119050919050565b6000604051905090565b600080fd5b600080fd5b60007fffffffff0000000000000000000000000000000000000000000000000000000082169050919050565b611ca081611c6b565b8114611cab57600080fd5b50565b600081359050611cbd81611c97565b92915050565b600060208284031215611cd957611cd8611c61565b5b6000611ce784828501611cae565b91505092915050565b60008115159050919050565b611d0581611cf0565b82525050565b6000602082019050611d206000830184611cfc565b92915050565b600081519050919050565b600082825260208201905092915050565b60005b83811015611d60578082015181840152602081019050611d45565b60008484015250505050565b6000601f19601f8301169050919050565b6000611d8882611d26565b611d928185611d31565b9350611da2818560208601611d42565b611dab81611d6c565b840191505092915050565b60006020820190508181036000830152611dd08184611d7d565b905092915050565b6000819050919050565b611deb81611dd8565b8114611df657600080fd5b50565b600081359050611e0881611de2565b92915050565b600060208284031215611e2457611e23611c61565b5b6000611e3284828501611df9565b91505092915050565b600073ffffffffffffffffffffffffffffffffffffffff82169050919050565b6000611e6682611e3b565b9050919050565b611e7681611e5b565b82525050565b6000602082019050611e916000830184611e6d565b92915050565b611ea081611e5b565b8114611eab57600080fd5b50565b600081359050611ebd81611e97565b92915050565b60008060408385031215611eda57611ed9611c61565b5b6000611ee885828601611eae565b9250506020611ef985828601611df9565b9150509250929050565b611f0c81611dd8565b82525050565b6000602082019050611f276000830184611f03565b92915050565b600080600060608486031215611f4657611f45611c61565b5b6000611f5486828701611eae565b9350506020611f6586828701611eae565b9250506040611f7686828701611df9565b9150509250925092565b600080fd5b600080fd5b7f4e487b7100000000000000000000000000000000000000000000000000000000600052604160045260246000fd5b611fc282611d6c565b810181811067ffffffffffffffff82111715611fe157611fe0611f8a565b5b80604052505050565b6000611ff4611c57565b90506120008282611fb9565b919050565b600067ffffffffffffffff8211156120205761201f611f8a565b5b61202982611d6c565b9050602081019050919050565b82818337600083830152505050565b600061205861205384612005565b611fea565b90508281526020810184848401111561207457612073611f85565b5b61207f848285612036565b509392505050565b600082601f83011261209c5761209b611f80565b5b81356120ac848260208601612045565b91505092915050565b6000602082840312156120cb576120ca611c61565b5b600082013567ffffffffffffffff8111156120e9576120e8611c66565b5b6120f584828501612087565b91505092915050565b60006020828403121561211457612113611c61565b5b600061212284828501611eae565b91505092915050565b61213481611cf0565b811461213f57600080fd5b50565b6000813590506121518161212b565b92915050565b6000806040838503121561216e5761216d611c61565b5b600061217c85828601611eae565b925050602061218d85828601612142565b9150509250929050565b600067ffffffffffffffff8211156121b2576121b1611f8a565b5b6121bb82611d6c565b9050602081019050919050565b60006121db6121d684612197565b611fea565b9050828152602081018484840111156121f7576121f6611f85565b5b612202848285612036565b509392505050565b600082601f83011261221f5761221e611f80565b5b813561222f8482602086016121c8565b91505092915050565b6000806000806080858703121561225257612251611c61565b5b600061226087828801611eae565b945050602061227187828801611eae565b935050604061228287828801611df9565b925050606085013567ffffffffffffffff8111156122a3576122a2611c66565b5b6122af8782880161220a565b91505092959194509250565b600080604083850312156122d2576122d1611c61565b5b60006122e085828601611eae565b92505060206122f185828601611eae565b9150509250929050565b7f4e487b7100000000000000000000000000000000000000000000000000000000600052602260045260246000fd5b6000600282049050600182168061234257607f821691505b602082108103612355576123546122fb565b5b50919050565b7f4552433732313a20617070726f76616c20746f2063757272656e74206f776e6560008201527f7200000000000000000000000000000000000000000000000000000000000000602082015250565b60006123b7602183611d31565b91506123c28261235b565b604082019050919050565b600060208201905081810360008301526123e6816123aa565b9050919050565b7f4552433732313a20617070726f76652063616c6c6572206973206e6f7420746f60008201527f6b656e206f776e6572206f7220617070726f76656420666f7220616c6c000000602082015250565b6000612449603d83611d31565b9150612454826123ed565b604082019050919050565b600060208201905081810360008301526124788161243c565b9050919050565b7f4552433732313a2063616c6c6572206973206e6f7420746f6b656e206f776e6560008201527f72206f7220617070726f76656400000000000000000000000000000000000000602082015250565b60006124db602d83611d31565b91506124e68261247f565b604082019050919050565b6000602082019050818103600083015261250a816124ce565b9050919050565b7f455243373231456e756d657261626c653a206f776e657220696e646578206f7560008201527f74206f6620626f756e6473000000000000000000000000000000000000000000602082015250565b600061256d602b83611d31565b915061257882612511565b604082019050919050565b6000602082019050818103600083015261259c81612560565b9050919050565b7f534e46545f455252313a20596f752063616e2774206d696e74206d6f7265207460008201527f68616e206f6e65206163636f756e7420666f7220616e20616464726573730000602082015250565b60006125ff603e83611d31565b915061260a826125a3565b604082019050919050565b6000602082019050818103600083015261262e816125f2565b9050919050565b7f455243373231456e756d657261626c653a20676c6f62616c20696e646578206f60008201527f7574206f6620626f756e64730000000000000000000000000000000000000000602082015250565b6000612691602c83611d31565b915061269c82612635565b604082019050919050565b600060208201905081810360008301526126c081612684565b9050919050565b7f4e487b7100000000000000000000000000000000000000000000000000000000600052603260045260246000fd5b7f4552433732313a20696e76616c696420746f6b656e2049440000000000000000600082015250565b600061272c601883611d31565b9150612737826126f6565b602082019050919050565b6000602082019050818103600083015261275b8161271f565b9050919050565b7f4552433732313a2061646472657373207a65726f206973206e6f74206120766160008201527f6c6964206f776e65720000000000000000000000000000000000000000000000602082015250565b60006127be602983611d31565b91506127c982612762565b604082019050919050565b600060208201905081810360008301526127ed816127b1565b9050919050565b7f4552433732313a207472616e736665722066726f6d20696e636f72726563742060008201527f6f776e6572000000000000000000000000000000000000000000000000000000602082015250565b6000612850602583611d31565b915061285b826127f4565b604082019050919050565b6000602082019050818103600083015261287f81612843565b9050919050565b7f4552433732313a207472616e7366657220746f20746865207a65726f2061646460008201527f7265737300000000000000000000000000000000000000000000000000000000602082015250565b60006128e2602483611d31565b91506128ed82612886565b604082019050919050565b60006020820190508181036000830152612911816128d5565b9050919050565b7f4552433732313a206d696e7420746f20746865207a65726f2061646472657373600082015250565b600061294e602083611d31565b915061295982612918565b602082019050919050565b6000602082019050818103600083015261297d81612941565b9050919050565b7f4552433732313a20746f6b656e20616c7265616479206d696e74656400000000600082015250565b60006129ba601c83611d31565b91506129c582612984565b602082019050919050565b600060208201905081810360008301526129e9816129ad565b9050919050565b7f45524337323155524953746f726167653a2055524920736574206f66206e6f6e60008201527f6578697374656e7420746f6b656e000000000000000000000000000000000000602082015250565b6000612a4c602e83611d31565b9150612a57826129f0565b604082019050919050565b60006020820190508181036000830152612a7b81612a3f565b9050919050565b60008190508160005260206000209050919050565b60006020601f8301049050919050565b600082821b905092915050565b600060088302612ae47fffffffffffffffffffffffffffffffffffffffffffffffffffffffffffffffff82612aa7565b612aee8683612aa7565b95508019841693508086168417925050509392505050565b6000819050919050565b6000612b2b612b26612b2184611dd8565b612b06565b611dd8565b9050919050565b6000819050919050565b612b4583612b10565b612b59612b5182612b32565b848454612ab4565b825550505050565b600090565b612b6e612b61565b612b79818484612b3c565b505050565b5b81811015612b9d57612b92600082612b66565b600181019050612b7f565b5050565b601f821115612be257612bb381612a82565b612bbc84612a97565b81016020851015612bcb578190505b612bdf612bd785612a97565b830182612b7e565b50505b505050565b600082821c905092915050565b6000612c0560001984600802612be7565b1980831691505092915050565b6000612c1e8383612bf4565b9150826002028217905092915050565b612c3782611d26565b67ffffffffffffffff811115612c5057612c4f611f8a565b5b612c5a825461232a565b612c65828285612ba1565b600060209050601f831160018114612c985760008415612c86578287015190505b612c908582612c12565b865550612cf8565b601f198416612ca686612a82565b60005b82811015612cce57848901518255600182019150602085019450602081019050612ca9565b86831015612ceb5784890151612ce7601f891682612bf4565b8355505b6001600288020188555050505b505050505050565b7f4552433732313a20617070726f766520746f2063616c6c657200000000000000600082015250565b6000612d36601983611d31565b9150612d4182612d00565b602082019050919050565b60006020820190508181036000830152612d6581612d29565b9050919050565b7f4552433732313a207472616e7366657220746f206e6f6e20455243373231526560008201527f63656976657220696d706c656d656e7465720000000000000000000000000000602082015250565b6000612dc8603283611d31565b9150612dd382612d6c565b604082019050919050565b60006020820190508181036000830152612df781612dbb565b9050919050565b7f455243373231456e756d657261626c653a20636f6e736563757469766520747260008201527f616e7366657273206e6f7420737570706f727465640000000000000000000000602082015250565b6000612e5a603583611d31565b9150612e6582612dfe565b604082019050919050565b60006020820190508181036000830152612e8981612e4d565b9050919050565b600081519050919050565b600082825260208201905092915050565b6000612eb782612e90565b612ec18185612e9b565b9350612ed1818560208601611d42565b612eda81611d6c565b840191505092915050565b6000608082019050612efa6000830187611e6d565b612f076020830186611e6d565b612f146040830185611f03565b8181036060830152612f268184612eac565b905095945050505050565b600081519050612f4081611c97565b92915050565b600060208284031215612f5c57612f5b611c61565b5b6000612f6a84828501612f31565b91505092915050565b7f4e487b7100000000000000000000000000000000000000000000000000000000600052601160045260246000fd5b6000612fad82611dd8565b9150612fb883611dd8565b9250828203905081811115612fd057612fcf612f73565b5b92915050565b7f4e487b7100000000000000000000000000000000000000000000000000000000600052603160045260246000fdfea26469706673582212203735f3eb3285e3f0f663916ac0eafe6d26e6e6f716367bdf112fe34eb16486dd64736f6c63430008110033",
  "immutableReferences": {},
  "source": "// SPDX-License-Identifier: MIT\npragma solidity >=0.5.11 < 0.9.0;\n\nimport \"@openzeppelin/contracts/token/ERC721/ERC721.sol\";\nimport \"@openzeppelin/contracts/token/ERC721/extensions/ERC721URIStorage.sol\";\nimport \"@openzeppelin/contracts/token/ERC721/extensions/ERC721Enumerable.sol\";\nimport \"@openzeppelin/contracts/utils/Counters.sol\";\n\n\ncontract SNFT is ERC721 {\n    using Counters for Counters.Counter;\n    Counters.Counter private _tokenIds;\n    using Strings for uint256;\n    // Mapping for token URIs\n    mapping(uint256 => string) private _tokenURIs;\n    // Mapping from owner to list of owned token IDs\n    mapping(address => mapping(uint256 => uint256)) private _ownedTokens;\n    // Mapping from token ID to index of the owner tokens list\n    mapping(uint256 => uint256) private _ownedTokensIndex;\n    // Array with all token ids, used for enumeration\n    uint256[] private _allTokens;\n    // Mapping from token id to position in the allTokens array\n    mapping(uint256 => uint256) private _allTokensIndex;\n\n    constructor(string memory name, string memory symbol) ERC721(name, symbol)  {\n    }\n\n\n    function tokenURI(uint256 tokenId) public view virtual override returns (string memory) {\n        _requireMinted(tokenId);\n        string memory _tokenURI = _tokenURIs[tokenId];\n       return _tokenURI;\n    }\n\n    function _setTokenURI(uint256 tokenId, string memory _tokenURI) internal virtual {\n        require(_exists(tokenId), \"ERC721URIStorage: URI set of nonexistent token\");\n        _tokenURIs[tokenId] = _tokenURI;\n    }\n\n\n    function createToken(string memory _tokenURI) public returns (uint256) {\n        require(balanceOf(msg.sender) <= 1, \"SNFT_ERR1: You can't mint more than one account for an address\");\n        _tokenIds.increment();\n        uint256 newTokenId = _tokenIds.current();\n        _mint(msg.sender, newTokenId);\n        if (bytes(_tokenURI).length != bytes(\"\").length) {\n             _setTokenURI(newTokenId,_tokenURI);\n        }\n        return newTokenId;\n    }\n\n\n    function tokenOfOwnerByIndex(address owner, uint256 index) public view virtual returns (uint256) {\n       require(index < balanceOf(owner), \"ERC721Enumerable: owner index out of bounds\");\n        return _ownedTokens[owner][index];\n    }\n\n    function totalSupply() public view virtual returns (uint256) {\n        return _allTokens.length;\n    }\n\n    function tokenByIndex(uint256 index) public view virtual returns (uint256) {\n        require(index < totalSupply(), \"ERC721Enumerable: global index out of bounds\");\n        return _allTokens[index]; \n    }\n\n    function _beforeTokenTransfer(\n        address from,\n        address to,\n        uint256 firstTokenId,\n        uint256 batchSize\n    ) internal virtual override {\n        super._beforeTokenTransfer(from, to, firstTokenId, batchSize);\n        require(batchSize <= 1, \"ERC721Enumerable: consecutive transfers not supported\");\n        uint256 tokenId = firstTokenId;\n        if (from == address(0)) {\n            _addTokenToAllTokensEnumeration(tokenId);\n        } else if (from != to) {\n            _removeTokenFromOwnerEnumeration(from, tokenId);\n        }\n        if (to == address(0)) {\n            _removeTokenFromAllTokensEnumeration(tokenId);\n        } else if (to != from) {\n            _addTokenToOwnerEnumeration(to, tokenId);\n        }\n    }\n\n    function _addTokenToOwnerEnumeration(address to, uint256 tokenId) private {\n        uint256 length = balanceOf(to);\n        _ownedTokens[to][length] = tokenId;\n        _ownedTokensIndex[tokenId] = length;\n    }\n\n    function _addTokenToAllTokensEnumeration(uint256 tokenId) private {\n        _allTokensIndex[tokenId] = _allTokens.length;\n        _allTokens.push(tokenId);\n    }\n\n\n    function _removeTokenFromOwnerEnumeration(address from, uint256 tokenId) private {\n        uint256 lastTokenIndex = ERC721.balanceOf(from) - 1;\n        uint256 tokenIndex = _ownedTokensIndex[tokenId];\n        if (tokenIndex != lastTokenIndex) {\n            uint256 lastTokenId = _ownedTokens[from][lastTokenIndex];\n            _ownedTokens[from][tokenIndex] = lastTokenId; \n            _ownedTokensIndex[lastTokenId] = tokenIndex; \n        }\n        delete _ownedTokensIndex[tokenId];\n        delete _ownedTokens[from][lastTokenIndex];\n    }\n\n \n    function _removeTokenFromAllTokensEnumeration(uint256 tokenId) private {\n        uint256 lastTokenIndex = _allTokens.length - 1;\n        uint256 tokenIndex = _allTokensIndex[tokenId];\n        uint256 lastTokenId = _allTokens[lastTokenIndex];\n        _allTokens[tokenIndex] = lastTokenId;\n        _allTokensIndex[lastTokenId] = tokenIndex; \n        delete _allTokensIndex[tokenId];\n        _allTokens.pop();\n    }\n}",
  "sourcePath": "/home/mohzcrea9me/XDC/STB/stable-borrow-mvp/src/backend/contracts/Snft.sol",
  "compiler": {
    "name": "solc",
    "version": "0.8.17+commit.8df45f5f.Emscripten.clang"
  },
  "schemaVersion": "3.4.11",
  "updatedAt": "2023-05-22T18:07:05.706Z",
  "networkType": "ethereum",
  "devdoc": {
    "kind": "dev",
    "methods": {
      "approve(address,uint256)": {
        "details": "See {IERC721-approve}."
      },
      "balanceOf(address)": {
        "details": "See {IERC721-balanceOf}."
      },
      "getApproved(uint256)": {
        "details": "See {IERC721-getApproved}."
      },
      "isApprovedForAll(address,address)": {
        "details": "See {IERC721-isApprovedForAll}."
      },
      "name()": {
        "details": "See {IERC721Metadata-name}."
      },
      "ownerOf(uint256)": {
        "details": "See {IERC721-ownerOf}."
      },
      "safeTransferFrom(address,address,uint256)": {
        "details": "See {IERC721-safeTransferFrom}."
      },
      "safeTransferFrom(address,address,uint256,bytes)": {
        "details": "See {IERC721-safeTransferFrom}."
      },
      "setApprovalForAll(address,bool)": {
        "details": "See {IERC721-setApprovalForAll}."
      },
      "supportsInterface(bytes4)": {
        "details": "See {IERC165-supportsInterface}."
      },
      "symbol()": {
        "details": "See {IERC721Metadata-symbol}."
      },
      "tokenURI(uint256)": {
        "details": "See {IERC721Metadata-tokenURI}."
      },
      "transferFrom(address,address,uint256)": {
        "details": "See {IERC721-transferFrom}."
      }
    },
    "version": 1
  },
  "userdoc": {
    "kind": "user",
    "methods": {},
    "version": 1
  }
}