{
  "contractName": "STB",
  "abi": [
    {
      "inputs": [
        {
          "internalType": "address",
          "name": "stc_address",
          "type": "address"
        },
        {
          "internalType": "uint256",
          "name": "col_ratio",
          "type": "uint256"
        },
        {
          "internalType": "uint256",
          "name": "reg_perc",
          "type": "uint256"
        },
        {
          "internalType": "uint256",
          "name": "intr",
          "type": "uint256"
        },
        {
          "internalType": "uint256",
          "name": "intr_duration",
          "type": "uint256"
        },
        {
          "internalType": "uint8",
          "name": "max_vault",
          "type": "uint8"
        }
      ],
      "stateMutability": "nonpayable",
      "type": "constructor"
    },
    {
      "anonymous": false,
      "inputs": [
        {
          "indexed": false,
          "internalType": "address",
          "name": "vault_owner",
          "type": "address"
        },
        {
          "indexed": false,
          "internalType": "uint256",
          "name": "vault_id",
          "type": "uint256"
        },
        {
          "indexed": false,
          "internalType": "uint256",
          "name": "time",
          "type": "uint256"
        },
        {
          "indexed": false,
          "internalType": "address",
          "name": "reporter",
          "type": "address"
        },
        {
          "indexed": true,
          "internalType": "uint256",
          "name": "commision",
          "type": "uint256"
        }
      ],
      "name": "VaultClosure",
      "type": "event"
    },
    {
      "anonymous": false,
      "inputs": [
        {
          "indexed": false,
          "internalType": "address",
          "name": "vault_owner",
          "type": "address"
        },
        {
          "indexed": false,
          "internalType": "uint256",
          "name": "vault_id",
          "type": "uint256"
        },
        {
          "indexed": true,
          "internalType": "uint256",
          "name": "time",
          "type": "uint256"
        },
        {
          "indexed": true,
          "internalType": "address",
          "name": "collateral",
          "type": "address"
        },
        {
          "indexed": false,
          "internalType": "uint256",
          "name": "amount",
          "type": "uint256"
        }
      ],
      "name": "VaultCreation",
      "type": "event"
    },
    {
      "inputs": [],
      "name": "admin",
      "outputs": [
        {
          "internalType": "address",
          "name": "",
          "type": "address"
        }
      ],
      "stateMutability": "view",
      "type": "function",
      "constant": true
    },
    {
      "inputs": [],
      "name": "interest",
      "outputs": [
        {
          "internalType": "uint256",
          "name": "",
          "type": "uint256"
        }
      ],
      "stateMutability": "view",
      "type": "function",
      "constant": true
    },
    {
      "inputs": [],
      "name": "interestDuration",
      "outputs": [
        {
          "internalType": "uint256",
          "name": "",
          "type": "uint256"
        }
      ],
      "stateMutability": "view",
      "type": "function",
      "constant": true
    },
    {
      "inputs": [
        {
          "internalType": "address",
          "name": "",
          "type": "address"
        }
      ],
      "name": "isAuthorized",
      "outputs": [
        {
          "internalType": "bool",
          "name": "",
          "type": "bool"
        }
      ],
      "stateMutability": "view",
      "type": "function",
      "constant": true
    },
    {
      "inputs": [],
      "name": "maximumVaultPerUser",
      "outputs": [
        {
          "internalType": "uint8",
          "name": "",
          "type": "uint8"
        }
      ],
      "stateMutability": "view",
      "type": "function",
      "constant": true
    },
    {
      "inputs": [],
      "name": "minimumColRatio",
      "outputs": [
        {
          "internalType": "uint256",
          "name": "",
          "type": "uint256"
        }
      ],
      "stateMutability": "view",
      "type": "function",
      "constant": true
    },
    {
      "inputs": [],
      "name": "regulatorPercentage",
      "outputs": [
        {
          "internalType": "uint256",
          "name": "",
          "type": "uint256"
        }
      ],
      "stateMutability": "view",
      "type": "function",
      "constant": true
    },
    {
      "inputs": [],
      "name": "stcAddress",
      "outputs": [
        {
          "internalType": "address",
          "name": "",
          "type": "address"
        }
      ],
      "stateMutability": "view",
      "type": "function",
      "constant": true
    },
    {
      "inputs": [
        {
          "internalType": "uint256",
          "name": "amount",
          "type": "uint256"
        }
      ],
      "name": "getEquivalentSTC",
      "outputs": [
        {
          "internalType": "uint256",
          "name": "",
          "type": "uint256"
        }
      ],
      "stateMutability": "view",
      "type": "function",
      "constant": true
    },
    {
      "inputs": [
        {
          "internalType": "uint256",
          "name": "vault_id",
          "type": "uint256"
        },
        {
          "internalType": "uint256",
          "name": "amount",
          "type": "uint256"
        }
      ],
      "name": "getEquivalentCollateral",
      "outputs": [
        {
          "internalType": "uint256",
          "name": "",
          "type": "uint256"
        }
      ],
      "stateMutability": "view",
      "type": "function",
      "constant": true
    },
    {
      "inputs": [
        {
          "internalType": "uint256",
          "name": "amount",
          "type": "uint256"
        }
      ],
      "name": "getRegulatorFee",
      "outputs": [
        {
          "internalType": "uint256",
          "name": "",
          "type": "uint256"
        }
      ],
      "stateMutability": "view",
      "type": "function",
      "constant": true
    },
    {
      "inputs": [
        {
          "internalType": "uint256",
          "name": "collateral_amt",
          "type": "uint256"
        }
      ],
      "name": "createVault",
      "outputs": [
        {
          "internalType": "bool",
          "name": "",
          "type": "bool"
        }
      ],
      "stateMutability": "payable",
      "type": "function",
      "payable": true
    },
    {
      "inputs": [],
      "name": "allVaults",
      "outputs": [
        {
          "components": [
            {
              "internalType": "uint256",
              "name": "id",
              "type": "uint256"
            },
            {
              "internalType": "address",
              "name": "owner",
              "type": "address"
            },
            {
              "internalType": "uint256",
              "name": "interest",
              "type": "uint256"
            },
            {
              "internalType": "uint256",
              "name": "created_at",
              "type": "uint256"
            },
            {
              "internalType": "uint256",
              "name": "closed_at",
              "type": "uint256"
            },
            {
              "internalType": "uint256",
              "name": "col_ratio",
              "type": "uint256"
            },
            {
              "internalType": "uint256",
              "name": "lck_collateral",
              "type": "uint256"
            },
            {
              "internalType": "uint256",
              "name": "avail_collateral",
              "type": "uint256"
            },
            {
              "internalType": "uint256",
              "name": "debt",
              "type": "uint256"
            },
            {
              "internalType": "uint256",
              "name": "last_payment_at",
              "type": "uint256"
            }
          ],
          "internalType": "struct STB.Vault[]",
          "name": "",
          "type": "tuple[]"
        }
      ],
      "stateMutability": "view",
      "type": "function",
      "constant": true
    },
    {
      "inputs": [
        {
          "internalType": "uint256",
          "name": "vault_id",
          "type": "uint256"
        }
      ],
      "name": "getVault",
      "outputs": [
        {
          "components": [
            {
              "internalType": "uint256",
              "name": "id",
              "type": "uint256"
            },
            {
              "internalType": "address",
              "name": "owner",
              "type": "address"
            },
            {
              "internalType": "uint256",
              "name": "interest",
              "type": "uint256"
            },
            {
              "internalType": "uint256",
              "name": "created_at",
              "type": "uint256"
            },
            {
              "internalType": "uint256",
              "name": "closed_at",
              "type": "uint256"
            },
            {
              "internalType": "uint256",
              "name": "col_ratio",
              "type": "uint256"
            },
            {
              "internalType": "uint256",
              "name": "lck_collateral",
              "type": "uint256"
            },
            {
              "internalType": "uint256",
              "name": "avail_collateral",
              "type": "uint256"
            },
            {
              "internalType": "uint256",
              "name": "debt",
              "type": "uint256"
            },
            {
              "internalType": "uint256",
              "name": "last_payment_at",
              "type": "uint256"
            }
          ],
          "internalType": "struct STB.Vault",
          "name": "",
          "type": "tuple"
        }
      ],
      "stateMutability": "view",
      "type": "function",
      "constant": true
    },
    {
      "inputs": [
        {
          "internalType": "address",
          "name": "account",
          "type": "address"
        }
      ],
      "name": "getUserVaults",
      "outputs": [
        {
          "components": [
            {
              "internalType": "uint256",
              "name": "id",
              "type": "uint256"
            },
            {
              "internalType": "address",
              "name": "owner",
              "type": "address"
            },
            {
              "internalType": "uint256",
              "name": "interest",
              "type": "uint256"
            },
            {
              "internalType": "uint256",
              "name": "created_at",
              "type": "uint256"
            },
            {
              "internalType": "uint256",
              "name": "closed_at",
              "type": "uint256"
            },
            {
              "internalType": "uint256",
              "name": "col_ratio",
              "type": "uint256"
            },
            {
              "internalType": "uint256",
              "name": "lck_collateral",
              "type": "uint256"
            },
            {
              "internalType": "uint256",
              "name": "avail_collateral",
              "type": "uint256"
            },
            {
              "internalType": "uint256",
              "name": "debt",
              "type": "uint256"
            },
            {
              "internalType": "uint256",
              "name": "last_payment_at",
              "type": "uint256"
            }
          ],
          "internalType": "struct STB.Vault[]",
          "name": "",
          "type": "tuple[]"
        }
      ],
      "stateMutability": "view",
      "type": "function",
      "constant": true
    },
    {
      "inputs": [
        {
          "internalType": "uint256",
          "name": "vault_id",
          "type": "uint256"
        }
      ],
      "name": "getVaultColRatio",
      "outputs": [
        {
          "internalType": "uint256",
          "name": "",
          "type": "uint256"
        }
      ],
      "stateMutability": "view",
      "type": "function",
      "constant": true
    },
    {
      "inputs": [
        {
          "internalType": "uint256",
          "name": "vault_id",
          "type": "uint256"
        }
      ],
      "name": "depositCollateral",
      "outputs": [
        {
          "internalType": "bool",
          "name": "",
          "type": "bool"
        }
      ],
      "stateMutability": "payable",
      "type": "function",
      "payable": true
    },
    {
      "inputs": [
        {
          "internalType": "uint256",
          "name": "vault_id",
          "type": "uint256"
        },
        {
          "internalType": "uint256",
          "name": "collateral_amt",
          "type": "uint256"
        }
      ],
      "name": "generateStc",
      "outputs": [
        {
          "internalType": "bool",
          "name": "",
          "type": "bool"
        }
      ],
      "stateMutability": "payable",
      "type": "function",
      "payable": true
    },
    {
      "inputs": [
        {
          "internalType": "uint256",
          "name": "vault_id",
          "type": "uint256"
        },
        {
          "internalType": "uint256",
          "name": "amount",
          "type": "uint256"
        }
      ],
      "name": "withdrawCollateral",
      "outputs": [
        {
          "internalType": "bool",
          "name": "",
          "type": "bool"
        }
      ],
      "stateMutability": "nonpayable",
      "type": "function"
    },
    {
      "inputs": [
        {
          "internalType": "uint256",
          "name": "vault_id",
          "type": "uint256"
        }
      ],
      "name": "debtDuration",
      "outputs": [
        {
          "internalType": "uint256",
          "name": "",
          "type": "uint256"
        }
      ],
      "stateMutability": "view",
      "type": "function",
      "constant": true
    },
    {
      "inputs": [
        {
          "internalType": "uint256",
          "name": "vault_id",
          "type": "uint256"
        }
      ],
      "name": "debtInterest",
      "outputs": [
        {
          "internalType": "uint256",
          "name": "",
          "type": "uint256"
        }
      ],
      "stateMutability": "view",
      "type": "function",
      "constant": true
    },
    {
      "inputs": [
        {
          "internalType": "uint256",
          "name": "vault_id",
          "type": "uint256"
        }
      ],
      "name": "vaultTotalDebt",
      "outputs": [
        {
          "internalType": "uint256",
          "name": "",
          "type": "uint256"
        }
      ],
      "stateMutability": "view",
      "type": "function",
      "constant": true
    },
    {
      "inputs": [
        {
          "internalType": "uint256",
          "name": "vault_id",
          "type": "uint256"
        },
        {
          "internalType": "uint256",
          "name": "amount",
          "type": "uint256"
        }
      ],
      "name": "payDebt",
      "outputs": [
        {
          "internalType": "bool",
          "name": "",
          "type": "bool"
        }
      ],
      "stateMutability": "nonpayable",
      "type": "function"
    },
    {
      "inputs": [
        {
          "internalType": "address",
          "name": "account",
          "type": "address"
        }
      ],
      "name": "authorize",
      "outputs": [],
      "stateMutability": "nonpayable",
      "type": "function"
    },
    {
      "inputs": [
        {
          "internalType": "address",
          "name": "account",
          "type": "address"
        }
      ],
      "name": "unauthorize",
      "outputs": [],
      "stateMutability": "nonpayable",
      "type": "function"
    },
    {
      "inputs": [
        {
          "internalType": "uint256",
          "name": "new_ratio",
          "type": "uint256"
        }
      ],
      "name": "updateMinimumColRatio",
      "outputs": [
        {
          "internalType": "bool",
          "name": "",
          "type": "bool"
        }
      ],
      "stateMutability": "nonpayable",
      "type": "function"
    },
    {
      "inputs": [
        {
          "internalType": "uint256",
          "name": "new_interest",
          "type": "uint256"
        }
      ],
      "name": "updateInterest",
      "outputs": [
        {
          "internalType": "bool",
          "name": "",
          "type": "bool"
        }
      ],
      "stateMutability": "nonpayable",
      "type": "function"
    },
    {
      "inputs": [
        {
          "internalType": "uint256",
          "name": "new_duration",
          "type": "uint256"
        }
      ],
      "name": "updateInterestDuration",
      "outputs": [
        {
          "internalType": "bool",
          "name": "",
          "type": "bool"
        }
      ],
      "stateMutability": "nonpayable",
      "type": "function"
    },
    {
      "inputs": [
        {
          "internalType": "uint8",
          "name": "new_max",
          "type": "uint8"
        }
      ],
      "name": "updateMaximumVault",
      "outputs": [
        {
          "internalType": "bool",
          "name": "",
          "type": "bool"
        }
      ],
      "stateMutability": "nonpayable",
      "type": "function"
    },
    {
      "inputs": [
        {
          "internalType": "uint256",
          "name": "new_reg_perc",
          "type": "uint256"
        }
      ],
      "name": "updateRegulatorPercentage",
      "outputs": [
        {
          "internalType": "bool",
          "name": "",
          "type": "bool"
        }
      ],
      "stateMutability": "nonpayable",
      "type": "function"
    },
    {
      "inputs": [],
      "name": "totalVaults",
      "outputs": [
        {
          "internalType": "uint256",
          "name": "",
          "type": "uint256"
        }
      ],
      "stateMutability": "view",
      "type": "function",
      "constant": true
    },
    {
      "inputs": [],
      "name": "totalLockedCol",
      "outputs": [
        {
          "internalType": "uint256",
          "name": "",
          "type": "uint256"
        }
      ],
      "stateMutability": "view",
      "type": "function",
      "constant": true
    },
    {
      "inputs": [],
      "name": "totalAvailableCol",
      "outputs": [
        {
          "internalType": "uint256",
          "name": "",
          "type": "uint256"
        }
      ],
      "stateMutability": "view",
      "type": "function",
      "constant": true
    },
    {
      "inputs": [
        {
          "internalType": "address",
          "name": "account",
          "type": "address"
        }
      ],
      "name": "userTotalLockedCol",
      "outputs": [
        {
          "internalType": "uint256",
          "name": "",
          "type": "uint256"
        }
      ],
      "stateMutability": "view",
      "type": "function",
      "constant": true
    },
    {
      "inputs": [
        {
          "internalType": "address",
          "name": "account",
          "type": "address"
        }
      ],
      "name": "userTotalAvailableCol",
      "outputs": [
        {
          "internalType": "uint256",
          "name": "",
          "type": "uint256"
        }
      ],
      "stateMutability": "view",
      "type": "function",
      "constant": true
    },
    {
      "inputs": [
        {
          "internalType": "address",
          "name": "account",
          "type": "address"
        }
      ],
      "name": "userTotalDebt",
      "outputs": [
        {
          "internalType": "uint256",
          "name": "",
          "type": "uint256"
        }
      ],
      "stateMutability": "view",
      "type": "function",
      "constant": true
    },
    {
      "inputs": [
        {
          "internalType": "uint256",
          "name": "vault_id",
          "type": "uint256"
        }
      ],
      "name": "inspectVault",
      "outputs": [
        {
          "internalType": "bool",
          "name": "",
          "type": "bool"
        }
      ],
      "stateMutability": "nonpayable",
      "type": "function"
    },
    {
      "inputs": [],
      "name": "allVaultsInLiquidation",
      "outputs": [
        {
          "components": [
            {
              "internalType": "uint256",
              "name": "id",
              "type": "uint256"
            },
            {
              "internalType": "address",
              "name": "owner",
              "type": "address"
            },
            {
              "internalType": "uint256",
              "name": "interest",
              "type": "uint256"
            },
            {
              "internalType": "uint256",
              "name": "created_at",
              "type": "uint256"
            },
            {
              "internalType": "uint256",
              "name": "closed_at",
              "type": "uint256"
            },
            {
              "internalType": "uint256",
              "name": "col_ratio",
              "type": "uint256"
            },
            {
              "internalType": "uint256",
              "name": "lck_collateral",
              "type": "uint256"
            },
            {
              "internalType": "uint256",
              "name": "avail_collateral",
              "type": "uint256"
            },
            {
              "internalType": "uint256",
              "name": "debt",
              "type": "uint256"
            },
            {
              "internalType": "uint256",
              "name": "last_payment_at",
              "type": "uint256"
            }
          ],
          "internalType": "struct STB.Vault[]",
          "name": "",
          "type": "tuple[]"
        }
      ],
      "stateMutability": "view",
      "type": "function",
      "constant": true
    },
    {
      "inputs": [],
      "name": "allHauntedVaults",
      "outputs": [
        {
          "components": [
            {
              "internalType": "uint256",
              "name": "id",
              "type": "uint256"
            },
            {
              "internalType": "address",
              "name": "owner",
              "type": "address"
            },
            {
              "internalType": "uint256",
              "name": "interest",
              "type": "uint256"
            },
            {
              "internalType": "uint256",
              "name": "created_at",
              "type": "uint256"
            },
            {
              "internalType": "uint256",
              "name": "closed_at",
              "type": "uint256"
            },
            {
              "internalType": "uint256",
              "name": "col_ratio",
              "type": "uint256"
            },
            {
              "internalType": "uint256",
              "name": "lck_collateral",
              "type": "uint256"
            },
            {
              "internalType": "uint256",
              "name": "avail_collateral",
              "type": "uint256"
            },
            {
              "internalType": "uint256",
              "name": "debt",
              "type": "uint256"
            },
            {
              "internalType": "uint256",
              "name": "last_payment_at",
              "type": "uint256"
            }
          ],
          "internalType": "struct STB.Vault[]",
          "name": "",
          "type": "tuple[]"
        }
      ],
      "stateMutability": "view",
      "type": "function",
      "constant": true
    }
  ],
  "bytecode": "0x60806040523480156200001157600080fd5b50604051620055cf380380620055cf8339818101604052810190620000379190620001df565b84600181905550826002819055508160068190555085600360006101000a81548173ffffffffffffffffffffffffffffffffffffffff021916908373ffffffffffffffffffffffffffffffffffffffff1602179055508360048190555080600560006101000a81548160ff021916908360ff16021790555033600860006101000a81548173ffffffffffffffffffffffffffffffffffffffff021916908373ffffffffffffffffffffffffffffffffffffffff1602179055505050505050506200027b565b600080fd5b600073ffffffffffffffffffffffffffffffffffffffff82169050919050565b60006200012e8262000101565b9050919050565b620001408162000121565b81146200014c57600080fd5b50565b600081519050620001608162000135565b92915050565b6000819050919050565b6200017b8162000166565b81146200018757600080fd5b50565b6000815190506200019b8162000170565b92915050565b600060ff82169050919050565b620001b981620001a1565b8114620001c557600080fd5b50565b600081519050620001d981620001ae565b92915050565b60008060008060008060c08789031215620001ff57620001fe620000fc565b5b60006200020f89828a016200014f565b96505060206200022289828a016200018a565b95505060406200023589828a016200018a565b94505060606200024889828a016200018a565b93505060806200025b89828a016200018a565b92505060a06200026e89828a01620001c8565b9150509295509295509295565b615344806200028b6000396000f3fe6080604052600436106102305760003560e01c80639541fc921161012e578063c392f766116100ab578063f51b51811161006f578063f51b518114610947578063f74a1c7514610972578063f851a440146109a2578063fb092bba146109cd578063fe9fbb8014610a0a57610230565b8063c392f7661461084e578063e56ceba314610879578063e7f3c69c146108b6578063eec58d11146108f3578063f0b37c041461091e57610230565b8063b17cf0e9116100f2578063b17cf0e914610750578063b488587c1461078d578063b6a5d7de146107ca578063bad4a01f146107f3578063be4890d11461082357610230565b80639541fc921461062c5780639a44e998146106695780639abbdf4b146106a6578063a512e9b7146106d6578063a69767ea1461071357610230565b80635551a3b7116101bc578063767a7b0511610180578063767a7b051461051f578063853884051461055c5780638a03080a146105995780638d654023146105c45780639403b634146105ef57610230565b80635551a3b714610400578063556b02e01461042b57806356489e53146104685780635fe4205f146104a557806362cc01e7146104e257610230565b806322401cce1161020357806322401cce146103055780632813a91a14610342578063321a284d1461037f578063353d7970146103aa57806336f140a7146103d557610230565b806305ccc60714610235578063063effeb1461026057806312da3e381461028b57806320b395aa146102c8575b600080fd5b34801561024157600080fd5b5061024a610a47565b6040516102579190613ba5565b60405180910390f35b34801561026c57600080fd5b50610275610a4d565b6040516102829190613d8c565b60405180910390f35b34801561029757600080fd5b506102b260048036038101906102ad9190613ddf565b610b5d565b6040516102bf9190613ba5565b60405180910390f35b3480156102d457600080fd5b506102ef60048036038101906102ea9190613e0c565b610b92565b6040516102fc9190613ba5565b60405180910390f35b34801561031157600080fd5b5061032c60048036038101906103279190613ddf565b610bce565b6040516103399190613ba5565b60405180910390f35b34801561034e57600080fd5b5061036960048036038101906103649190613e78565b610c0f565b6040516103769190613ba5565b60405180910390f35b34801561038b57600080fd5b50610394610cad565b6040516103a19190613ba5565b60405180910390f35b3480156103b657600080fd5b506103bf610d40565b6040516103cc9190613d8c565b60405180910390f35b3480156103e157600080fd5b506103ea610f23565b6040516103f79190613eb4565b60405180910390f35b34801561040c57600080fd5b50610415610f49565b6040516104229190613ba5565b60405180910390f35b34801561043757600080fd5b50610452600480360381019061044d9190613ddf565b610f4f565b60405161045f9190613ba5565b60405180910390f35b34801561047457600080fd5b5061048f600480360381019061048a9190613f08565b611037565b60405161049c9190613f50565b60405180910390f35b3480156104b157600080fd5b506104cc60048036038101906104c79190613ddf565b61113a565b6040516104d99190613f50565b60405180910390f35b3480156104ee57600080fd5b5061050960048036038101906105049190613e0c565b611222565b6040516105169190613f50565b60405180910390f35b34801561052b57600080fd5b5061054660048036038101906105419190613e0c565b611562565b6040516105539190613f50565b60405180910390f35b34801561056857600080fd5b50610583600480360381019061057e9190613ddf565b61189b565b6040516105909190613ba5565b60405180910390f35b3480156105a557600080fd5b506105ae6118ca565b6040516105bb9190613ba5565b60405180910390f35b3480156105d057600080fd5b506105d96118d0565b6040516105e69190613ba5565b60405180910390f35b3480156105fb57600080fd5b5061061660048036038101906106119190613ddf565b6118dc565b6040516106239190614037565b60405180910390f35b34801561063857600080fd5b50610653600480360381019061064e9190613e78565b6119d9565b6040516106609190613ba5565b60405180910390f35b34801561067557600080fd5b50610690600480360381019061068b9190613e78565b611a75565b60405161069d9190613ba5565b60405180910390f35b6106c060048036038101906106bb9190613ddf565b611b11565b6040516106cd9190613f50565b60405180910390f35b3480156106e257600080fd5b506106fd60048036038101906106f89190613ddf565b611d03565b60405161070a9190613f50565b60405180910390f35b34801561071f57600080fd5b5061073a60048036038101906107359190613ddf565b611de7565b6040516107479190613ba5565b60405180910390f35b34801561075c57600080fd5b5061077760048036038101906107729190613ddf565b611e69565b6040516107849190613f50565b60405180910390f35b34801561079957600080fd5b506107b460048036038101906107af9190613ddf565b611f0b565b6040516107c19190613f50565b60405180910390f35b3480156107d657600080fd5b506107f160048036038101906107ec9190613e78565b612301565b005b61080d60048036038101906108089190613ddf565b61245d565b60405161081a9190613f50565b60405180910390f35b34801561082f57600080fd5b5061083861271f565b6040516108459190613d8c565b60405180910390f35b34801561085a57600080fd5b50610863612904565b6040516108709190613ba5565b60405180910390f35b34801561088557600080fd5b506108a0600480360381019061089b9190613ddf565b61290a565b6040516108ad9190613ba5565b60405180910390f35b3480156108c257600080fd5b506108dd60048036038101906108d89190613e78565b612937565b6040516108ea9190613d8c565b60405180910390f35b3480156108ff57600080fd5b50610908612b45565b6040516109159190614062565b60405180910390f35b34801561092a57600080fd5b5061094560048036038101906109409190613e78565b612b58565b005b34801561095357600080fd5b5061095c612ccc565b6040516109699190613ba5565b60405180910390f35b61098c60048036038101906109879190613e0c565b612d5f565b6040516109999190613f50565b60405180910390f35b3480156109ae57600080fd5b506109b7613118565b6040516109c49190613eb4565b60405180910390f35b3480156109d957600080fd5b506109f460048036038101906109ef9190613ddf565b61313e565b604051610a019190613f50565b60405180910390f35b348015610a1657600080fd5b50610a316004803603810190610a2c9190613e78565b6131e0565b604051610a3e9190613f50565b60405180910390f35b60015481565b60606000805480602002602001604051908101604052809291908181526020016000905b82821015610b5457838290600052602060002090600a020160405180610140016040529081600082015481526020016001820160009054906101000a900473ffffffffffffffffffffffffffffffffffffffff1673ffffffffffffffffffffffffffffffffffffffff1673ffffffffffffffffffffffffffffffffffffffff1681526020016002820154815260200160038201548152602001600482015481526020016005820154815260200160068201548152602001600782015481526020016008820154815260200160098201548152505081526020019060010190610a71565b50505050905090565b60008082600454610b6e91906140ac565b90506000670de0b6b3a764000082610b86919061411d565b90508092505050919050565b600080610b9e84610bce565b83610ba991906140ac565b90506000670de0b6b3a764000082610bc1919061411d565b9050809250505092915050565b6000610bd9826118dc565b6101000151670de0b6b3a7640000610bf0846118dc565b60c00151610bfe91906140ac565b610c08919061411d565b9050919050565b6000806000905060005b610c2284612937565b51811015610ca3576000610c3585612937565b8281518110610c4757610c4661414e565b5b602002602001015161010001511115610c9057610c6384612937565b8181518110610c7557610c7461414e565b5b6020026020010151610100015182610c8d919061417d565b91505b8080610c9b906141b1565b915050610c19565b5080915050919050565b6000806000905060005b600080549050811015610d38576000808281548110610cd957610cd861414e565b5b90600052602060002090600a0201600701541115610d255760008181548110610d0557610d0461414e565b5b90600052602060002090600a02016007015482610d22919061417d565b91505b8080610d30906141b1565b915050610cb7565b508091505090565b60606000808054905067ffffffffffffffff811115610d6257610d616141f9565b5b604051908082528060200260200182016040528015610d9b57816020015b610d88613b23565b815260200190600190039081610d805790505b50905060005b600080549050811015610f1b576000808281548110610dc357610dc261414e565b5b90600052602060002090600a020160040154118015610e0657506000808281548110610df257610df161414e565b5b90600052602060002090600a020160080154115b15610f085760008181548110610e1f57610e1e61414e565b5b90600052602060002090600a020160405180610140016040529081600082015481526020016001820160009054906101000a900473ffffffffffffffffffffffffffffffffffffffff1673ffffffffffffffffffffffffffffffffffffffff1673ffffffffffffffffffffffffffffffffffffffff16815260200160028201548152602001600382015481526020016004820154815260200160058201548152602001600682015481526020016007820154815260200160088201548152602001600982015481525050828281518110610efc57610efb61414e565b5b60200260200101819052505b8080610f13906141b1565b915050610da1565b508091505090565b600360009054906101000a900473ffffffffffffffffffffffffffffffffffffffff1681565b60065481565b600080610f5b836118dc565b6060015190506000610f6c846118dc565b61012001519050600080610f7f866118dc565b61010001511115610ff957600083118015610f9a5750600082145b15610fbf576000610fab4285613200565b905060065481610fbb919061411d565b9150505b600083118015610fcf5750600082115b15610ff4576000610fe04284613200565b905060065481610ff0919061411d565b9150505b61102c565b600083111561102657600061100e8385613200565b90506006548161101e919061411d565b91505061102b565b600090505b5b809350505050919050565b6000600860009054906101000a900473ffffffffffffffffffffffffffffffffffffffff1673ffffffffffffffffffffffffffffffffffffffff163373ffffffffffffffffffffffffffffffffffffffff16146110c9576040517f08c379a00000000000000000000000000000000000000000000000000000000081526004016110c0906142ab565b60405180910390fd5b816000805490508160ff161015611115576040517f08c379a000000000000000000000000000000000000000000000000000000000815260040161110c90614363565b60405180910390fd5b82600560006101000a81548160ff021916908360ff1602179055506001915050919050565b6000600860009054906101000a900473ffffffffffffffffffffffffffffffffffffffff1673ffffffffffffffffffffffffffffffffffffffff163373ffffffffffffffffffffffffffffffffffffffff16146111cc576040517f08c379a00000000000000000000000000000000000000000000000000000000081526004016111c3906142ab565b60405180910390fd5b816001811015611211576040517f08c379a0000000000000000000000000000000000000000000000000000000008152600401611208906143f5565b60405180910390fd5b826004819055506001915050919050565b6000826000611230826118dc565b6020015190503373ffffffffffffffffffffffffffffffffffffffff168173ffffffffffffffffffffffffffffffffffffffff16146112a4576040517f08c379a000000000000000000000000000000000000000000000000000000000815260040161129b90614487565b60405180910390fd5b8460006112b0826118dc565b60600151116112f4576040517f08c379a00000000000000000000000000000000000000000000000000000000081526004016112eb90614519565b60405180910390fd5b60006112ff826118dc565b6080015114611343576040517f08c379a000000000000000000000000000000000000000000000000000000000815260040161133a906145ab565b60405180910390fd5b61134c81610bce565b611355826118dc565b60a0015114611399576040517f08c379a000000000000000000000000000000000000000000000000000000000815260040161139090614663565b60405180910390fd5b8560006113a5826118dc565b61010001511115611402576001546113bc826118dc565b60a001511015611401576040517f08c379a00000000000000000000000000000000000000000000000000000000081526004016113f8906146f5565b60405180910390fd5b5b60008611611445576040517f08c379a000000000000000000000000000000000000000000000000000000000815260040161143c90614787565b60405180910390fd5b6000611450886118dc565b61010001519050600061146289611de7565b905060006114708383613259565b9050600081116114b5576040517f08c379a00000000000000000000000000000000000000000000000000000000081526004016114ac9061483f565b60405180910390fd5b888110156114f8576040517f08c379a00000000000000000000000000000000000000000000000000000000081526004016114ef906148f7565b60405180910390fd5b60008211156115455781891015611544576040517f08c379a000000000000000000000000000000000000000000000000000000000815260040161153b90614989565b60405180910390fd5b5b6115518a8a85846132b2565b600197505050505050505092915050565b6000826000611570826118dc565b6020015190503373ffffffffffffffffffffffffffffffffffffffff168173ffffffffffffffffffffffffffffffffffffffff16146115e4576040517f08c379a00000000000000000000000000000000000000000000000000000000081526004016115db90614487565b60405180910390fd5b8460006115f0826118dc565b6060015111611634576040517f08c379a000000000000000000000000000000000000000000000000000000000815260040161162b90614519565b60405180910390fd5b600061163f826118dc565b6080015114611683576040517f08c379a000000000000000000000000000000000000000000000000000000000815260040161167a906145ab565b60405180910390fd5b61168c81610bce565b611695826118dc565b60a00151146116d9576040517f08c379a00000000000000000000000000000000000000000000000000000000081526004016116d090614663565b60405180910390fd5b8560006116e5826118dc565b61010001511115611742576001546116fc826118dc565b60a001511015611741576040517f08c379a0000000000000000000000000000000000000000000000000000000008152600401611738906146f5565b60405180910390fd5b5b868660008111611787576040517f08c379a000000000000000000000000000000000000000000000000000000000815260040161177e90614787565b60405180910390fd5b80611791836118dc565b60e0015110156117d6576040517f08c379a00000000000000000000000000000000000000000000000000000000081526004016117cd90614a1b565b60405180910390fd5b60006117e38a6001613200565b90506000611816600083815481106117fe576117fd61414e565b5b90600052602060002090600a0201600701548b613200565b9050806000838154811061182d5761182c61414e565b5b90600052602060002090600a0201600701819055503373ffffffffffffffffffffffffffffffffffffffff166108fc8b9081150290604051600060405180830381858888f19350505050158015611888573d6000803e3d6000fd5b5060019850505050505050505092915050565b600080670de0b6b3a7640000836118b291906140ac565b9050600154816118c2919061411d565b915050919050565b60045481565b60008080549050905090565b6118e4613b23565b60006118f1836001613200565b9050600081815481106119075761190661414e565b5b90600052602060002090600a020160405180610140016040529081600082015481526020016001820160009054906101000a900473ffffffffffffffffffffffffffffffffffffffff1673ffffffffffffffffffffffffffffffffffffffff1673ffffffffffffffffffffffffffffffffffffffff16815260200160028201548152602001600382015481526020016004820154815260200160058201548152602001600682015481526020016007820154815260200160088201548152602001600982015481525050915050919050565b6000806000905060005b6119ec84612937565b51811015611a6b5760006119ff85612937565b8281518110611a1157611a1061414e565b5b602002602001015160c001511115611a5857611a2c84612937565b8181518110611a3e57611a3d61414e565b5b602002602001015160c0015182611a55919061417d565b91505b8080611a63906141b1565b9150506119e3565b5080915050919050565b6000806000905060005b611a8884612937565b51811015611b07576000611a9b85612937565b8281518110611aad57611aac61414e565b5b602002602001015160e001511115611af457611ac884612937565b8181518110611ada57611ad961414e565b5b602002602001015160e0015182611af1919061417d565b91505b8080611aff906141b1565b915050611a7f565b5080915050919050565b60008160003411611b57576040517f08c379a0000000000000000000000000000000000000000000000000000000008152600401611b4e90614aad565b60405180910390fd5b60008111611b9a576040517f08c379a0000000000000000000000000000000000000000000000000000000008152600401611b9190614787565b60405180910390fd5b80341015611bdd576040517f08c379a0000000000000000000000000000000000000000000000000000000008152600401611bd490614b3f565b60405180910390fd5b6000611bfc600560009054906101000a900460ff1660ff166001613200565b90506000611c0933612937565b8281518110611c1b57611c1a61414e565b5b60200260200101516000015114611c67576040517f08c379a0000000000000000000000000000000000000000000000000000000008152600401611c5e90614bd1565b60405180910390fd5b6000611c7b85611c7687610b5d565b613200565b90506000611c893487613200565b90506000611c968361189b565b90506000811115611cc157611cac878284613667565b611cb58161384a565b60019550505050611cfc565b6040517f08c379a0000000000000000000000000000000000000000000000000000000008152600401611cf390614c63565b60405180910390fd5b5050919050565b6000600760003373ffffffffffffffffffffffffffffffffffffffff1673ffffffffffffffffffffffffffffffffffffffff16815260200190815260200160002060009054906101000a900460ff16611d91576040517f08c379a0000000000000000000000000000000000000000000000000000000008152600401611d8890614cf5565b60405180910390fd5b816001548111611dd6576040517f08c379a0000000000000000000000000000000000000000000000000000000008152600401611dcd90614dad565b60405180910390fd5b826001819055506001915050919050565b600080611df383610f4f565b90506000611e00846118dc565b61010001519050600080831115611e5a576000611e1c866118dc565b6040015190506000670de0b6b3a76400008483611e3991906140ac565b611e43919061411d565b90508085611e5191906140ac565b92505050611e5e565b8290505b809350505050919050565b6000600860009054906101000a900473ffffffffffffffffffffffffffffffffffffffff1673ffffffffffffffffffffffffffffffffffffffff163373ffffffffffffffffffffffffffffffffffffffff1614611efb576040517f08c379a0000000000000000000000000000000000000000000000000000000008152600401611ef2906142ab565b60405180910390fd5b8160068190555060019050919050565b6000600760003373ffffffffffffffffffffffffffffffffffffffff1673ffffffffffffffffffffffffffffffffffffffff16815260200190815260200160002060009054906101000a900460ff16611f99576040517f08c379a0000000000000000000000000000000000000000000000000000000008152600401611f9090614cf5565b60405180910390fd5b816000611fa5826118dc565b6060015111611fe9576040517f08c379a0000000000000000000000000000000000000000000000000000000008152600401611fe090614519565b60405180910390fd5b6000611ff4826118dc565b6080015114612038576040517f08c379a000000000000000000000000000000000000000000000000000000000815260040161202f906145ab565b60405180910390fd5b61204181610bce565b61204a826118dc565b60a001511461208e576040517f08c379a000000000000000000000000000000000000000000000000000000000815260040161208590614663565b60405180910390fd5b82600061209a826118dc565b6101000151116120df576040517f08c379a00000000000000000000000000000000000000000000000000000000081526004016120d690614e3f565b60405180910390fd5b6001546120eb826118dc565b60a001511061212f576040517f08c379a000000000000000000000000000000000000000000000000000000000815260040161212690614ed1565b60405180910390fd5b600061213a826118dc565b60c001511161217e576040517f08c379a000000000000000000000000000000000000000000000000000000000815260040161217590614f63565b60405180910390fd5b600061218b856001613200565b905060008082815481106121a2576121a161414e565b5b90600052602060002090600a020160060154905060008083815481106121cb576121ca61414e565b5b90600052602060002090600a020160070154905060008111156122e95760008084815481106121fd576121fc61414e565b5b90600052602060002090600a020160070181905550600061221e8383613259565b905080600085815481106122355761223461414e565b5b90600052602060002090600a020160060181905550600080858154811061225f5761225e61414e565b5b90600052602060002090600a020160080154670de0b6b3a76400008361228591906140ac565b61228f919061411d565b905080600086815481106122a6576122a561414e565b5b90600052602060002090600a02016005018190555060015481106122d2576001975050505050506122fa565b6122db896138f4565b6000975050505050506122fa565b6122f2876138f4565b600095505050505b5050919050565b600860009054906101000a900473ffffffffffffffffffffffffffffffffffffffff1673ffffffffffffffffffffffffffffffffffffffff163373ffffffffffffffffffffffffffffffffffffffff1614612391576040517f08c379a0000000000000000000000000000000000000000000000000000000008152600401612388906142ab565b60405180910390fd5b80600073ffffffffffffffffffffffffffffffffffffffff168173ffffffffffffffffffffffffffffffffffffffff1603612401576040517f08c379a00000000000000000000000000000000000000000000000000000000081526004016123f890614ff5565b60405180910390fd5b6001600760008473ffffffffffffffffffffffffffffffffffffffff1673ffffffffffffffffffffffffffffffffffffffff16815260200190815260200160002060006101000a81548160ff0219169083151502179055505050565b600081600061246b826118dc565b6020015190503373ffffffffffffffffffffffffffffffffffffffff168173ffffffffffffffffffffffffffffffffffffffff16146124df576040517f08c379a00000000000000000000000000000000000000000000000000000000081526004016124d690614487565b60405180910390fd5b8360006124eb826118dc565b606001511161252f576040517f08c379a000000000000000000000000000000000000000000000000000000000815260040161252690614519565b60405180910390fd5b600061253a826118dc565b608001511461257e576040517f08c379a0000000000000000000000000000000000000000000000000000000008152600401612575906145ab565b60405180910390fd5b61258781610bce565b612590826118dc565b60a00151146125d4576040517f08c379a00000000000000000000000000000000000000000000000000000000081526004016125cb90614663565b60405180910390fd5b8460006125e0826118dc565b6101000151111561263d576001546125f7826118dc565b60a00151101561263c576040517f08c379a0000000000000000000000000000000000000000000000000000000008152600401612633906146f5565b60405180910390fd5b5b3460003411612681576040517f08c379a000000000000000000000000000000000000000000000000000000000815260040161267890614aad565b60405180910390fd5b600081116126c4576040517f08c379a00000000000000000000000000000000000000000000000000000000081526004016126bb90614787565b60405180910390fd5b80341015612707576040517f08c379a00000000000000000000000000000000000000000000000000000000081526004016126fe90614b3f565b60405180910390fd5b6127118734613a3f565b600195505050505050919050565b60606000808054905067ffffffffffffffff811115612741576127406141f9565b5b60405190808252806020026020018201604052801561277a57816020015b612767613b23565b81526020019060019003908161275f5790505b50905060005b6000805490508110156128fc5760008082815481106127a2576127a161414e565b5b90600052602060002090600a0201600401541480156127e75750600154600082815481106127d3576127d261414e565b5b90600052602060002090600a020160050154105b156128e95760008181548110612800576127ff61414e565b5b90600052602060002090600a020160405180610140016040529081600082015481526020016001820160009054906101000a900473ffffffffffffffffffffffffffffffffffffffff1673ffffffffffffffffffffffffffffffffffffffff1673ffffffffffffffffffffffffffffffffffffffff168152602001600282015481526020016003820154815260200160048201548152602001600582015481526020016006820154815260200160078201548152602001600882015481526020016009820154815250508282815181106128dd576128dc61414e565b5b60200260200101819052505b80806128f4906141b1565b915050612780565b508091505090565b60025481565b60008061292c612919846118dc565b610100015161292785611de7565b613259565b905080915050919050565b60606000600560009054906101000a900460ff1660ff1667ffffffffffffffff811115612967576129666141f9565b5b6040519080825280602002602001820160405280156129a057816020015b61298d613b23565b8152602001906001900390816129855790505b50905060005b600080549050811015612b3b578373ffffffffffffffffffffffffffffffffffffffff16600082815481106129de576129dd61414e565b5b90600052602060002090600a020160010160009054906101000a900473ffffffffffffffffffffffffffffffffffffffff1673ffffffffffffffffffffffffffffffffffffffff1603612b285760008181548110612a3f57612a3e61414e565b5b90600052602060002090600a020160405180610140016040529081600082015481526020016001820160009054906101000a900473ffffffffffffffffffffffffffffffffffffffff1673ffffffffffffffffffffffffffffffffffffffff1673ffffffffffffffffffffffffffffffffffffffff16815260200160028201548152602001600382015481526020016004820154815260200160058201548152602001600682015481526020016007820154815260200160088201548152602001600982015481525050828281518110612b1c57612b1b61414e565b5b60200260200101819052505b8080612b33906141b1565b9150506129a6565b5080915050919050565b600560009054906101000a900460ff1681565b600860009054906101000a900473ffffffffffffffffffffffffffffffffffffffff1673ffffffffffffffffffffffffffffffffffffffff163373ffffffffffffffffffffffffffffffffffffffff1614612be8576040517f08c379a0000000000000000000000000000000000000000000000000000000008152600401612bdf906142ab565b60405180910390fd5b80600860009054906101000a900473ffffffffffffffffffffffffffffffffffffffff1673ffffffffffffffffffffffffffffffffffffffff168173ffffffffffffffffffffffffffffffffffffffff1603612c79576040517f08c379a0000000000000000000000000000000000000000000000000000000008152600401612c7090615087565b60405180910390fd5b600760008373ffffffffffffffffffffffffffffffffffffffff1673ffffffffffffffffffffffffffffffffffffffff16815260200190815260200160002060006101000a81549060ff02191690555050565b6000806000905060005b600080549050811015612d57576000808281548110612cf857612cf761414e565b5b90600052602060002090600a0201600601541115612d445760008181548110612d2457612d2361414e565b5b90600052602060002090600a02016006015482612d41919061417d565b91505b8080612d4f906141b1565b915050612cd6565b508091505090565b6000826000612d6d826118dc565b6020015190503373ffffffffffffffffffffffffffffffffffffffff168173ffffffffffffffffffffffffffffffffffffffff1614612de1576040517f08c379a0000000000000000000000000000000000000000000000000000000008152600401612dd890614487565b60405180910390fd5b846000612ded826118dc565b6060015111612e31576040517f08c379a0000000000000000000000000000000000000000000000000000000008152600401612e2890614519565b60405180910390fd5b6000612e3c826118dc565b6080015114612e80576040517f08c379a0000000000000000000000000000000000000000000000000000000008152600401612e77906145ab565b60405180910390fd5b612e8981610bce565b612e92826118dc565b60a0015114612ed6576040517f08c379a0000000000000000000000000000000000000000000000000000000008152600401612ecd90614663565b60405180910390fd5b856000612ee2826118dc565b61010001511115612f3f57600154612ef9826118dc565b60a001511015612f3e576040517f08c379a0000000000000000000000000000000000000000000000000000000008152600401612f35906146f5565b60405180910390fd5b5b8560003411612f83576040517f08c379a0000000000000000000000000000000000000000000000000000000008152600401612f7a90614aad565b60405180910390fd5b60008111612fc6576040517f08c379a0000000000000000000000000000000000000000000000000000000008152600401612fbd90614787565b60405180910390fd5b80341015613009576040517f08c379a000000000000000000000000000000000000000000000000000000000815260040161300090614b3f565b60405180910390fd5b6000613016896001613200565b905060006130238961189b565b90506000613031348b613200565b905061303d8b8b613a3f565b600061306e600085815481106130565761305561414e565b5b90600052602060002090600a02016008015484613259565b905080600085815481106130855761308461414e565b5b90600052602060002090600a02016008018190555060008211156130fc576130d2600085815481106130ba576130b961414e565b5b90600052602060002090600a02016007015483613259565b600085815481106130e6576130e561414e565b5b90600052602060002090600a0201600701819055505b6131058361384a565b6001995050505050505050505092915050565b600860009054906101000a900473ffffffffffffffffffffffffffffffffffffffff1681565b6000600860009054906101000a900473ffffffffffffffffffffffffffffffffffffffff1673ffffffffffffffffffffffffffffffffffffffff163373ffffffffffffffffffffffffffffffffffffffff16146131d0576040517f08c379a00000000000000000000000000000000000000000000000000000000081526004016131c7906142ab565b60405180910390fd5b8160028190555060019050919050565b60076020528060005260406000206000915054906101000a900460ff1681565b600082828461320f91906150a7565b9150811115613253576040517f08c379a000000000000000000000000000000000000000000000000000000000815260040161324a9061514d565b60405180910390fd5b92915050565b6000828284613268919061417d565b91508110156132ac576040517f08c379a00000000000000000000000000000000000000000000000000000000081526004016132a3906151b9565b60405180910390fd5b92915050565b60006132bf856001613200565b905060006132cd8386613200565b905060006132db8583613200565b905060006132e98783613200565b90506000600360009054906101000a900473ffffffffffffffffffffffffffffffffffffffff169050600082111561339d578073ffffffffffffffffffffffffffffffffffffffff166323b872dd3330856040518463ffffffff1660e01b8152600401613358939291906151d9565b6020604051808303816000875af1158015613377573d6000803e3d6000fd5b505050506040513d601f19601f8201168201806040525081019061339b919061523c565b505b8073ffffffffffffffffffffffffffffffffffffffff16639dc29fac33856040518363ffffffff1660e01b81526004016133d8929190615269565b6020604051808303816000875af11580156133f7573d6000803e3d6000fd5b505050506040513d601f19601f8201168201806040525081019061341b919061523c565b50600084036134fa576134786000868154811061343b5761343a61414e565b5b90600052602060002090600a020160070154600087815481106134615761346061414e565b5b90600052602060002090600a020160060154613259565b6000868154811061348c5761348b61414e565b5b90600052602060002090600a02016007018190555060008086815481106134b6576134b561414e565b5b90600052602060002090600a02016006018190555060008086815481106134e0576134df61414e565b5b90600052602060002090600a020160050181905550613608565b60006135068a85610b92565b90506135376000878154811061351f5761351e61414e565b5b90600052602060002090600a02016007015482613259565b6000878154811061354b5761354a61414e565b5b90600052602060002090600a0201600701819055506000613591600088815481106135795761357861414e565b5b90600052602060002090600a02016006015483613200565b905080600088815481106135a8576135a761414e565b5b90600052602060002090600a02016006018190555085670de0b6b3a7640000826135d291906140ac565b6135dc919061411d565b600088815481106135f0576135ef61414e565b5b90600052602060002090600a02016005018190555050505b836000868154811061361d5761361c61414e565b5b90600052602060002090600a02016008018190555042600086815481106136475761364661414e565b5b90600052602060002090600a020160090181905550505050505050505050565b60006136796000805490506001613259565b9050600083670de0b6b3a76400008661369291906140ac565b61369c919061411d565b905060006040518061014001604052808481526020013373ffffffffffffffffffffffffffffffffffffffff168152602001600254815260200142815260200160008152602001838152602001878152602001858152602001868152602001600081525090806001815401808255809150506001900390600052602060002090600a02016000909190919091506000820151816000015560208201518160010160006101000a81548173ffffffffffffffffffffffffffffffffffffffff021916908373ffffffffffffffffffffffffffffffffffffffff16021790555060408201518160020155606082015181600301556080820151816004015560a0820151816005015560c0820151816006015560e08201518160070155610100820151816008015561012082015181600901555050600360009054906101000a900473ffffffffffffffffffffffffffffffffffffffff1673ffffffffffffffffffffffffffffffffffffffff16427fce50d0b5ecf36664378b389966c216f105e62e6f7ac3def5d0c6c5ec418b6a4233858960405161383b93929190615292565b60405180910390a35050505050565b6000600360009054906101000a900473ffffffffffffffffffffffffffffffffffffffff1690508073ffffffffffffffffffffffffffffffffffffffff166340c10f1933846040518363ffffffff1660e01b81526004016138ac929190615269565b6020604051808303816000875af11580156138cb573d6000803e3d6000fd5b505050506040513d601f19601f820116820180604052508101906138ef919061523c565b505050565b6000613901826001613200565b905060008082815481106139185761391761414e565b5b90600052602060002090600a020160010160009054906101000a900473ffffffffffffffffffffffffffffffffffffffff16905060008083815481106139615761396061414e565b5b90600052602060002090600a0201600601549050600080848154811061398a5761398961414e565b5b90600052602060002090600a02016006018190555060008084815481106139b4576139b361414e565b5b90600052602060002090600a02016005018190555042600084815481106139de576139dd61414e565b5b90600052602060002090600a0201600401819055506139fc81610b5d565b7f0eb2126a1f72c929d29df913b252a7e7a7d2a17bbcfc9a4a72a8c7cdab9fa51083864233604051613a3194939291906152c9565b60405180910390a250505050565b6000613a4c836001613200565b90506000613a7f60008381548110613a6757613a6661414e565b5b90600052602060002090600a02016006015484613259565b90508060008381548110613a9657613a9561414e565b5b90600052602060002090600a0201600601819055506000808381548110613ac057613abf61414e565b5b90600052602060002090600a020160080154670de0b6b3a764000083613ae691906140ac565b613af0919061411d565b90508060008481548110613b0757613b0661414e565b5b90600052602060002090600a0201600501819055505050505050565b60405180610140016040528060008152602001600073ffffffffffffffffffffffffffffffffffffffff16815260200160008152602001600081526020016000815260200160008152602001600081526020016000815260200160008152602001600081525090565b6000819050919050565b613b9f81613b8c565b82525050565b6000602082019050613bba6000830184613b96565b92915050565b600081519050919050565b600082825260208201905092915050565b6000819050602082019050919050565b613bf581613b8c565b82525050565b600073ffffffffffffffffffffffffffffffffffffffff82169050919050565b6000613c2682613bfb565b9050919050565b613c3681613c1b565b82525050565b61014082016000820151613c536000850182613bec565b506020820151613c666020850182613c2d565b506040820151613c796040850182613bec565b506060820151613c8c6060850182613bec565b506080820151613c9f6080850182613bec565b5060a0820151613cb260a0850182613bec565b5060c0820151613cc560c0850182613bec565b5060e0820151613cd860e0850182613bec565b50610100820151613ced610100850182613bec565b50610120820151613d02610120850182613bec565b50505050565b6000613d148383613c3c565b6101408301905092915050565b6000602082019050919050565b6000613d3982613bc0565b613d438185613bcb565b9350613d4e83613bdc565b8060005b83811015613d7f578151613d668882613d08565b9750613d7183613d21565b925050600181019050613d52565b5085935050505092915050565b60006020820190508181036000830152613da68184613d2e565b905092915050565b600080fd5b613dbc81613b8c565b8114613dc757600080fd5b50565b600081359050613dd981613db3565b92915050565b600060208284031215613df557613df4613dae565b5b6000613e0384828501613dca565b91505092915050565b60008060408385031215613e2357613e22613dae565b5b6000613e3185828601613dca565b9250506020613e4285828601613dca565b9150509250929050565b613e5581613c1b565b8114613e6057600080fd5b50565b600081359050613e7281613e4c565b92915050565b600060208284031215613e8e57613e8d613dae565b5b6000613e9c84828501613e63565b91505092915050565b613eae81613c1b565b82525050565b6000602082019050613ec96000830184613ea5565b92915050565b600060ff82169050919050565b613ee581613ecf565b8114613ef057600080fd5b50565b600081359050613f0281613edc565b92915050565b600060208284031215613f1e57613f1d613dae565b5b6000613f2c84828501613ef3565b91505092915050565b60008115159050919050565b613f4a81613f35565b82525050565b6000602082019050613f656000830184613f41565b92915050565b61014082016000820151613f826000850182613bec565b506020820151613f956020850182613c2d565b506040820151613fa86040850182613bec565b506060820151613fbb6060850182613bec565b506080820151613fce6080850182613bec565b5060a0820151613fe160a0850182613bec565b5060c0820151613ff460c0850182613bec565b5060e082015161400760e0850182613bec565b5061010082015161401c610100850182613bec565b50610120820151614031610120850182613bec565b50505050565b60006101408201905061404d6000830184613f6b565b92915050565b61405c81613ecf565b82525050565b60006020820190506140776000830184614053565b92915050565b7f4e487b7100000000000000000000000000000000000000000000000000000000600052601160045260246000fd5b60006140b782613b8c565b91506140c283613b8c565b92508282026140d081613b8c565b915082820484148315176140e7576140e661407d565b5b5092915050565b7f4e487b7100000000000000000000000000000000000000000000000000000000600052601260045260246000fd5b600061412882613b8c565b915061413383613b8c565b925082614143576141426140ee565b5b828204905092915050565b7f4e487b7100000000000000000000000000000000000000000000000000000000600052603260045260246000fd5b600061418882613b8c565b915061419383613b8c565b92508282019050808211156141ab576141aa61407d565b5b92915050565b60006141bc82613b8c565b91507fffffffffffffffffffffffffffffffffffffffffffffffffffffffffffffffff82036141ee576141ed61407d565b5b600182019050919050565b7f4e487b7100000000000000000000000000000000000000000000000000000000600052604160045260246000fd5b600082825260208201905092915050565b7f5354422d4552525f31303a204f6e6c7920636f6e74726163742061646d696e2060008201527f63616e2063616c6c20746869732066756e6374696f6e00000000000000000000602082015250565b6000614295603683614228565b91506142a082614239565b604082019050919050565b600060208201905081810360008301526142c481614288565b9050919050565b7f5354422d4552525f31393a206d6178207661756c74207065722075736572206360008201527f616e6e6f74206265206c6573736572207468616e20746f74616c207661756c7460208201527f7300000000000000000000000000000000000000000000000000000000000000604082015250565b600061434d604183614228565b9150614358826142cb565b606082019050919050565b6000602082019050818103600083015261437c81614340565b9050919050565b7f5354422d4552525f32313a206e657720726567756c61746f722070657263656e60008201527f746167652063616e6e6f74206265207a65726f28302900000000000000000000602082015250565b60006143df603683614228565b91506143ea82614383565b604082019050919050565b6000602082019050818103600083015261440e816143d2565b9050919050565b7f5354422d4552525f313a204f6e6c79207661756c74206f776e65722063616e2060008201527f63616c6c20746869732066756e6374696f6e0000000000000000000000000000602082015250565b6000614471603283614228565b915061447c82614415565b604082019050919050565b600060208201905081810360008301526144a081614464565b9050919050565b7f5354422d4552525f363a205661756c742077697468207468697320696420646f60008201527f6573206e6f742065786973740000000000000000000000000000000000000000602082015250565b6000614503602c83614228565b915061450e826144a7565b604082019050919050565b60006020820190508181036000830152614532816144f6565b9050919050565b7f5354422d4552525f373a205661756c742077697468207468697320696420686160008201527f73206265656e20636c6f73656400000000000000000000000000000000000000602082015250565b6000614595602d83614228565b91506145a082614539565b604082019050919050565b600060208201905081810360008301526145c481614588565b9050919050565b7f5354422d4552525f32333a2054686973207661756c74207365656d732073757360008201527f706963696f75732c207661756c7420616374697669746965732061726520737560208201527f7370656e64656400000000000000000000000000000000000000000000000000604082015250565b600061464d604783614228565b9150614658826145cb565b606082019050919050565b6000602082019050818103600083015261467c81614640565b9050919050565b7f5354422d4552525f353a2054686973207661756c7420697320696e206c69717560008201527f69646174696f6e00000000000000000000000000000000000000000000000000602082015250565b60006146df602783614228565b91506146ea82614683565b604082019050919050565b6000602082019050818103600083015261470e816146d2565b9050919050565b7f5354422d4552525f333a20416d6f756e7420696e7075746564206973206c657360008201527f736572207468616e207468616e207a65726f2830290000000000000000000000602082015250565b6000614771603583614228565b915061477c82614715565b604082019050919050565b600060208201905081810360008301526147a081614764565b9050919050565b7f5354422d4552525f31303a2074686973207661756c7420686173206e6f206f7560008201527f747374616e64696e6720646562742c2076657269667920616e6420747279206160208201527f6761696e00000000000000000000000000000000000000000000000000000000604082015250565b6000614829604483614228565b9150614834826147a7565b606082019050919050565b600060208201905081810360008301526148588161481c565b9050919050565b7f5354422d4552525f31313a2044656274206f7665727061796d656e742c20766560008201527f7269667920796f7572206f75747374616e64696e67206465627420616e64207460208201527f727920616761696e000000000000000000000000000000000000000000000000604082015250565b60006148e1604883614228565b91506148ec8261485f565b606082019050919050565b60006020820190508181036000830152614910816148d4565b9050919050565b7f5354422d4552525f31323a20696e70757420616d6f756e74206973206c65737360008201527f6572207468616e20696e74657265737400000000000000000000000000000000602082015250565b6000614973603083614228565b915061497e82614917565b604082019050919050565b600060208201905081810360008301526149a281614966565b9050919050565b7f5354422d4552525f383a20496e73756666696369656e7420636f6c6c6174657260008201527f616c2062616c616e636500000000000000000000000000000000000000000000602082015250565b6000614a05602a83614228565b9150614a10826149a9565b604082019050919050565b60006020820190508181036000830152614a34816149f8565b9050919050565b7f5354422d4552525f323a20416d6f756e742073656e74206d757374206265206760008201527f726561746572207468616e207a65726f28302900000000000000000000000000602082015250565b6000614a97603383614228565b9150614aa282614a3b565b604082019050919050565b60006020820190508181036000830152614ac681614a8a565b9050919050565b7f5354422d4552525f343a20416d6f756e742073656e74206973206c657373657260008201527f207468616e20696e707574656420616d6f756e74000000000000000000000000602082015250565b6000614b29603483614228565b9150614b3482614acd565b604082019050919050565b60006020820190508181036000830152614b5881614b1c565b9050919050565b7f5354422d4552525f393a204d6178696d756d206e756d626572206f662076617560008201527f6c74732072656163686564000000000000000000000000000000000000000000602082015250565b6000614bbb602b83614228565b9150614bc682614b5f565b604082019050919050565b60006020820190508181036000830152614bea81614bae565b9050919050565b7f5354422d4552525f32323a20496e70757420636f6c6c61746572616c20746f6f60008201527f20736d616c6c0000000000000000000000000000000000000000000000000000602082015250565b6000614c4d602683614228565b9150614c5882614bf1565b604082019050919050565b60006020820190508181036000830152614c7c81614c40565b9050919050565b7f5354422d4552525f31333a204f6e6c7920617574686f72697a6564206163636f60008201527f756e74732063616e2063616c6c20746869732066756e6374696f6e0000000000602082015250565b6000614cdf603b83614228565b9150614cea82614c83565b604082019050919050565b60006020820190508181036000830152614d0e81614cd2565b9050919050565b7f5354422d4552525f32303a206d696e696d756d20636f6c6c61746572616c207260008201527f6174696f2063616e6e6f74206265206c6573736572207468616e20637572726560208201527f6e74206d696e696d756d20636f6c6c61746572616c20726174696f0000000000604082015250565b6000614d97605b83614228565b9150614da282614d15565b606082019050919050565b60006020820190508181036000830152614dc681614d8a565b9050919050565b7f5354422d4552525f31343a207661756c7420776974682074686973206964206460008201527f6f65736e2774206861766520616e206f75747374616e64696e67206465627400602082015250565b6000614e29603f83614228565b9150614e3482614dcd565b604082019050919050565b60006020820190508181036000830152614e5881614e1c565b9050919050565b7f5354422d4552525f31353a207661756c7420776974682074686973206964206960008201527f73206e6f7420696e206c69717569646174696f6e000000000000000000000000602082015250565b6000614ebb603483614228565b9150614ec682614e5f565b604082019050919050565b60006020820190508181036000830152614eea81614eae565b9050919050565b7f5354422d4552525f31363a207661756c742773206c6f636b656420636f6c6c6160008201527f746572616c206973206c6573736572207468616e207a65726f28302900000000602082015250565b6000614f4d603c83614228565b9150614f5882614ef1565b604082019050919050565b60006020820190508181036000830152614f7c81614f40565b9050919050565b7f5354432d4552525f31323a20496e76616c69642061646472657373207061737360008201527f6564000000000000000000000000000000000000000000000000000000000000602082015250565b6000614fdf602283614228565b9150614fea82614f83565b604082019050919050565b6000602082019050818103600083015261500e81614fd2565b9050919050565b7f5354432d4552525f31313a2043616e277420756e617574686f72697a6520636f60008201527f6e74726163742061646d696e0000000000000000000000000000000000000000602082015250565b6000615071602c83614228565b915061507c82615015565b604082019050919050565b600060208201905081810360008301526150a081615064565b9050919050565b60006150b282613b8c565b91506150bd83613b8c565b92508282039050818111156150d5576150d461407d565b5b92915050565b7f4d4154485f4552525f323a206d617468207375627374726174696f6e2066616960008201527f6c65640000000000000000000000000000000000000000000000000000000000602082015250565b6000615137602383614228565b9150615142826150db565b604082019050919050565b600060208201905081810360008301526151668161512a565b9050919050565b7f4d4154485f4552525f313a206d617468206164646974696f6e206661696c6564600082015250565b60006151a3602083614228565b91506151ae8261516d565b602082019050919050565b600060208201905081810360008301526151d281615196565b9050919050565b60006060820190506151ee6000830186613ea5565b6151fb6020830185613ea5565b6152086040830184613b96565b949350505050565b61521981613f35565b811461522457600080fd5b50565b60008151905061523681615210565b92915050565b60006020828403121561525257615251613dae565b5b600061526084828501615227565b91505092915050565b600060408201905061527e6000830185613ea5565b61528b6020830184613b96565b9392505050565b60006060820190506152a76000830186613ea5565b6152b46020830185613b96565b6152c16040830184613b96565b949350505050565b60006080820190506152de6000830187613ea5565b6152eb6020830186613b96565b6152f86040830185613b96565b6153056060830184613ea5565b9594505050505056fea264697066735822122017100b93295b1b8ff1a47f8b32081efd7f05aeccce48673ab20faea3463d231b64736f6c63430008110033",
  "immutableReferences": {},
  "source": "// Official contract for vault by mohzcrea8me\n\n// SPDX-License-Identifier: MIT\npragma solidity >=0.5.11 < 0.9.0;\nimport \"./Stc.sol\";\n\ninterface ISTB {\n    struct Vault{\n        uint256 id;\n        address owner;\n        uint256 interest;\n        uint created_at;\n        uint closed_at;\n        uint256 col_ratio;\n        uint256 lck_collateral;\n        uint256 avail_collateral;\n        uint256 debt;\n        uint last_payment_at;\n    }\n\n   function getEquivalentSTC(uint256 amount) external view returns (uint);\n   function getEquivalentCollateral(uint256 vault_id, uint256 amount) external view returns (uint);\n   function getRegulatorFee(uint256 amount) external view returns (uint);\n   function createVault(uint collateral_amt) external payable returns(bool);\n   function allVaults() external view returns(Vault [] memory);\n   function getVault(uint256 vault_id) external view returns(Vault memory);\n   function getUserVaults(address account) external view returns (Vault [] memory);\n   function getVaultColRatio(uint256 vault_id) external view returns(uint);\n   function depositCollateral(uint vault_id) external payable returns (bool);\n   function generateStc(uint256 vault_id, uint256 collateral_amt) external payable returns(bool);\n   function withdrawCollateral(uint256 vault_id, uint256 amount) external  returns(bool);\n   function debtDuration(uint256 vault_id) external view returns(uint);\n   function debtInterest(uint256 vault_id) external view returns(uint);\n   function vaultTotalDebt(uint256 vault_id) external view returns(uint);\n   function payDebt(uint256 vault_id, uint256 amount) external  returns (bool);\n   function updateMinimumColRatio(uint256 new_ratio) external  returns(bool);\n   function totalVaults() external view returns(uint);\n   function totalLockedCol() external view returns(uint); \n   function totalAvailableCol() external view returns(uint);\n   function userTotalLockedCol(address account) external view returns(uint);\n   function userTotalAvailableCol(address account) external view returns(uint); \n   function userTotalDebt(address account) external view returns(uint); \n   function inspectVault(uint256 vault_id) external returns(bool);\n   function allVaultsInLiquidation() external view returns(Vault [] memory);\n   function allHauntedVaults() external view returns(Vault [] memory);\n\n}\n\ncontract STB {\n    struct Vault{\n        uint256 id;\n        address owner;\n        uint256 interest;\n        uint created_at;\n        uint closed_at;\n        uint256 col_ratio;\n        uint256 lck_collateral;\n        uint256 avail_collateral;\n        uint256 debt;\n        uint last_payment_at;\n    }\n    Vault [] VaultList;\n    uint256 public minimumColRatio;\n    uint256 public interest;\n    address public stcAddress;\n    uint256 public regulatorPercentage;\n    uint8 public maximumVaultPerUser;\n    uint public interestDuration; // yearly most times(31556926)\n    mapping (address => bool) public isAuthorized;\n    address public admin;\n    event VaultCreation(address vault_owner, uint256 vault_id, uint indexed time,  address indexed collateral, uint256 amount);\n    event VaultClosure(address vault_owner, uint256 vault_id, uint time, address reporter, uint256 indexed commision);\n\n\n    constructor(address stc_address, uint256 col_ratio, uint256 reg_perc, uint256 intr, uint intr_duration, uint8 max_vault) {\n        minimumColRatio = col_ratio;\n        interest = intr;\n        interestDuration = intr_duration;\n        stcAddress = stc_address;\n        regulatorPercentage = reg_perc;\n        maximumVaultPerUser = max_vault;\n        admin = msg.sender;\n    }\n    \n    //-------MATH(LIKE SAFEMATH)----\n    function add(uint a, uint b) internal pure returns (uint c) {\n        require((c = a + b) >= a, \"MATH_ERR_1: math addition failed\");\n    }\n    function sub(uint a, uint b) internal pure returns (uint c) {\n        require((c = a - b) <= a, \"MATH_ERR_2: math substration failed\");\n    }\n    //------MODIFIERS---------\n    modifier validateOwner(uint256 vault_id) {\n        address vault_owner = getVault(vault_id).owner;\n        require(vault_owner == msg.sender, \"STB-ERR_1: Only vault owner can call this function\");\n        _;\n    }\n\n    modifier validateAmountReceived(uint amount) {\n        require(msg.value > 0, \"STB-ERR_2: Amount sent must be greater than zero(0)\");\n        require(amount > 0, \"STB-ERR_3: Amount inputed is lesser than than zero(0)\");\n        require(msg.value >=  amount, \"STB-ERR_4: Amount sent is lesser than inputed amount\");\n        _;\n    }\n\n    modifier validateLiquidation(uint256 vault_id) {\n       if (getVault(vault_id).debt > 0) {\n            require(getVault(vault_id).col_ratio >= minimumColRatio, \"STB-ERR_5: This vault is in liquidation\");\n       }\n        _;\n    }\n\n    modifier validateVault(uint256 vault_id) {\n        require(getVault(vault_id).created_at > 0, \"STB-ERR_6: Vault with this id does not exist\");\n        require(getVault(vault_id).closed_at == 0, \"STB-ERR_7: Vault with this id has been closed\");\n        require(getVault(vault_id).col_ratio == getVaultColRatio(vault_id), \"STB-ERR_23: This vault seems suspicious, vault activities are suspended\");\n        _;\n    }\n\n    modifier validateAvailableBalance(uint256 vault_id, uint256 amount) {\n        require(amount > 0, \"STB-ERR_3: Amount inputed is lesser than than zero(0)\");\n        require(getVault(vault_id).avail_collateral >= amount, \"STB-ERR_8: Insufficient collateral balance\");\n        _;\n    }\n   \n\n    modifier validateMaxVault() {\n        uint lst_vault_pstn = sub(maximumVaultPerUser, 1);\n        require(getUserVaults(msg.sender)[lst_vault_pstn].id == 0, \"STB-ERR_9: Maximum number of vaults reached\");\n        _;\n    }\n\n    modifier validateIsAdmin() {\n        require(msg.sender == admin, \"STB-ERR_10: Only contract admin can call this function\");\n        _;\n    }\n\n\n    modifier validateNotAdmin(address account) {\n        require(account != admin, \"STC-ERR_11: Can't unauthorize contract admin\");\n        _;\n    }\n\n    modifier validateAddress(address account) {\n        require(account != address(0), \"STC-ERR_12: Invalid address passed\");\n        _;\n    }\n\n\n    modifier validateAuthorization() {\n        require(isAuthorized[msg.sender], \"STB-ERR_13: Only authorized accounts can call this function\");\n        _;\n    }\n\n    modifier validateVaultInspection(uint256 vault_id) {\n        require(getVault(vault_id).debt > 0, \"STB-ERR_14: vault with this id doesn't have an outstanding debt\");\n        require(getVault(vault_id).col_ratio < minimumColRatio, \"STB-ERR_15: vault with this id is not in liquidation\");\n        require(getVault(vault_id).lck_collateral > 0, \"STB-ERR_16: vault's locked collateral is lesser than zero(0)\");\n        _;\n    }\n\n    modifier validateNewMaxVault(uint8 new_max) {\n        require(new_max >= VaultList.length, \"STB-ERR_19: max vault per user cannot be lesser than total vaults\");\n        _;\n    }\n\n    modifier validateMinimumColRatio(uint256 new_ratio) {\n        require(new_ratio > minimumColRatio, \"STB-ERR_20: minimum collateral ratio cannot be lesser than current minimum collateral ratio\");\n        _;\n    }\n\n    modifier validateRegulatorPerc(uint256 new_reg_perc) {\n        require(new_reg_perc >= 1, \"STB-ERR_21: new regulator percentage cannot be zero(0)\");\n        _;\n    }\n\n//------FUNCTIONS---------   \n    \n    function _createVault (uint256 lck_collateral_amt, uint256 equivalent_stc, uint256 balance) internal {\n      uint256 newid = add(VaultList.length, 1);\n      uint currentColRatio = (lck_collateral_amt * 1000000000000000000) / equivalent_stc;\n      VaultList.push(Vault(newid, msg.sender, interest, block.timestamp, 0, currentColRatio, lck_collateral_amt, balance, equivalent_stc, 0));\n      emit VaultCreation(msg.sender, newid, block.timestamp, stcAddress, lck_collateral_amt);\n    }\n\n    function _mintStc (uint256 amount) internal {\n      ISTC istc = ISTC(stcAddress);\n      istc.mint(msg.sender, amount);\n    }\n\n    function getEquivalentSTC(uint256 amount) public view returns (uint) {\n        uint converted_amt = (amount * 1000000000000000000);\n        return (converted_amt/minimumColRatio);\n    }\n\n    function getEquivalentCollateral(uint256 vault_id, uint256 amount) public view returns (uint) {\n        uint collateral = amount * getVaultColRatio(vault_id);\n        uint converted_collateral = collateral /1000000000000000000;\n        return converted_collateral;\n    }\n\n    \n    function getRegulatorFee(uint256 amount) public view returns (uint) {\n       uint reg_fee = regulatorPercentage * amount;\n       uint conv_reg_fee = reg_fee/1000000000000000000;\n       return conv_reg_fee;\n    }\n\n    function createVault(uint collateral_amt) external payable validateAmountReceived(collateral_amt) validateMaxVault() returns(bool) {\n        uint actual_amount = sub(collateral_amt, getRegulatorFee(collateral_amt));\n        uint balance = sub(msg.value, collateral_amt);\n        uint equivalent_stc = getEquivalentSTC(actual_amount);\n        if (equivalent_stc > 0) {\n            _createVault(collateral_amt, equivalent_stc, balance);\n            _mintStc(equivalent_stc);\n            return true;\n        }else{\n            revert(\"STB-ERR_22: Input collateral too small\");\n        }\n    }\n\n\n    function allVaults() external view returns(Vault [] memory) {\n        return VaultList;\n    }\n\n    function getVault(uint256 vault_id) public view returns(Vault memory) {\n        uint256 conv_vault_id = sub(vault_id, 1);\n        return VaultList[conv_vault_id];\n    }\n\n\n    function getUserVaults(address account) public view returns (Vault [] memory) {\n        Vault[] memory list = new Vault [](maximumVaultPerUser);\n        for(uint i = 0; i < VaultList.length; i++) {\n            if (VaultList[i].owner == account) {\n               list[i] = VaultList[i];\n            }\n        }\n        return list;\n    }\n\n    function _depositCollateral(uint256 vault_id, uint256 amount) internal {\n        uint conv_vault_id = sub(vault_id, 1);\n        uint new_collateral = add(VaultList[conv_vault_id].lck_collateral, amount);\n        VaultList[conv_vault_id].lck_collateral = new_collateral;\n        uint256 new_col_ratio = ((new_collateral * 1000000000000000000)  / VaultList[conv_vault_id].debt);\n        VaultList[conv_vault_id].col_ratio = new_col_ratio;\n    }\n\n    function getVaultColRatio(uint256 vault_id) public view returns(uint) {\n        return  (getVault(vault_id).lck_collateral * 1000000000000000000)  / getVault(vault_id).debt;\n    }\n\n    function depositCollateral(uint vault_id) external payable validateOwner(vault_id) validateVault(vault_id) validateLiquidation(vault_id) validateAmountReceived(msg.value)  returns (bool) {\n        _depositCollateral(vault_id, msg.value);\n        return true;\n    }\n\n    function generateStc(uint256 vault_id, uint256 collateral_amt) external payable validateOwner(vault_id) validateVault(vault_id) validateLiquidation(vault_id) validateAmountReceived(collateral_amt) returns(bool) {\n        uint conv_vault_id = sub(vault_id, 1);\n        uint256 equivalent_stc = getEquivalentSTC(collateral_amt);\n        uint256 balance = sub(msg.value, collateral_amt);\n        _depositCollateral(vault_id, collateral_amt);\n        uint256 new_debt = add(VaultList[conv_vault_id].debt, equivalent_stc);\n        VaultList[conv_vault_id].debt = new_debt;\n        if (balance > 0) {\n            VaultList[conv_vault_id].avail_collateral = add(VaultList[conv_vault_id].avail_collateral, balance);\n        }\n        _mintStc(equivalent_stc);\n        return true;\n    }\n\n    function withdrawCollateral(uint256 vault_id, uint256 amount) external validateOwner(vault_id) validateVault(vault_id) validateLiquidation(vault_id) validateAvailableBalance(vault_id, amount) returns(bool) {\n        uint conv_vault_id = sub(vault_id, 1);\n        uint256 new_available_balance = sub(VaultList[conv_vault_id].avail_collateral, amount);\n        VaultList[conv_vault_id].avail_collateral = new_available_balance;\n        payable(msg.sender).transfer(amount);\n        return true;\n    }\n\n    function debtDuration(uint256 vault_id) public view returns(uint) {\n        uint start_date = getVault(vault_id).created_at;\n        uint last_payment_date = getVault(vault_id).last_payment_at; \n        uint duration_period;\n        if(getVault(vault_id).debt > 0) {\n            if (start_date > 0 && last_payment_date == 0) {\n            uint duration_seconds = sub(block.timestamp, start_date);\n            duration_period = (duration_seconds / interestDuration);\n            }\n            if (start_date > 0 && last_payment_date > 0) {\n            uint duration_seconds = sub(block.timestamp, last_payment_date);\n            duration_period = (duration_seconds / interestDuration);\n            }\n        }else{\n            if(start_date > 0) {\n            uint duration_seconds = sub(last_payment_date, start_date);\n            duration_period = (duration_seconds / interestDuration);\n            }else{\n            duration_period = 0;\n            }\n        }\n        return duration_period;\n    }\n\n    function debtInterest(uint256 vault_id) public view returns(uint) {\n        uint debt_duration = debtDuration(vault_id);\n        uint debt = getVault(vault_id).debt;\n        uint interest_amt;\n        if(debt_duration > 0) {\n            uint _interest = getVault(vault_id).interest;\n            uint _interest_amt = (_interest * debt) / 1000000000000000000;\n            interest_amt = debt_duration * _interest_amt; \n        }else{\n            interest_amt = debt_duration;\n        }\n        return interest_amt;\n    }\n\n    function vaultTotalDebt(uint256 vault_id) external view returns(uint) {\n        uint total_debt = add(getVault(vault_id).debt, debtInterest(vault_id));\n        return  total_debt;\n    }\n\n    function _payDebt(uint256 vault_id, uint256 amount, uint256 old_debt, uint256 total_debt) internal {\n        uint conv_vault_id = sub(vault_id, 1);\n        uint new_debt = sub(total_debt,amount);\n        uint debt_paid = sub(old_debt, new_debt);\n        uint deposit_amt = sub(amount, debt_paid);\n        ISTC istc = ISTC(stcAddress);\n        if (deposit_amt > 0) {\n            istc.transferFrom(msg.sender, address(this), deposit_amt);\n        }\n        istc.burn(msg.sender, debt_paid);\n        if (new_debt == 0) {\n            VaultList[conv_vault_id].avail_collateral = add(VaultList[conv_vault_id].avail_collateral, VaultList[conv_vault_id].lck_collateral);\n            VaultList[conv_vault_id].lck_collateral = 0;\n            VaultList[conv_vault_id].col_ratio = 0;\n        }else{\n            uint equivalent_collateral = getEquivalentCollateral(vault_id, debt_paid);\n            VaultList[conv_vault_id].avail_collateral = add(VaultList[conv_vault_id].avail_collateral, equivalent_collateral);\n            uint new_lck_col = sub(VaultList[conv_vault_id].lck_collateral, equivalent_collateral);\n            VaultList[conv_vault_id].lck_collateral = new_lck_col;\n            VaultList[conv_vault_id].col_ratio = (new_lck_col * 1000000000000000000) / new_debt;\n        }\n        VaultList[conv_vault_id].debt = new_debt;\n        VaultList[conv_vault_id].last_payment_at = block.timestamp;\n    }\n\n    function payDebt(uint256 vault_id, uint256 amount) external validateOwner(vault_id) validateVault(vault_id) validateLiquidation(vault_id)  returns (bool) {\n        require(amount > 0, \"STB-ERR_3: Amount inputed is lesser than than zero(0)\");\n        uint debt = getVault(vault_id).debt;\n        uint interest_amt = debtInterest(vault_id);\n        uint total_debt = add(debt, interest_amt);\n        require(total_debt > 0, \"STB-ERR_10: this vault has no outstanding debt, verify and try again\");\n        require(total_debt >= amount, \"STB-ERR_11: Debt overpayment, verify your outstanding debt and try again\");\n        if (interest_amt > 0) {\n             require(amount >= interest_amt,  \"STB-ERR_12: input amount is lesser than interest\");\n        }\n        _payDebt(vault_id, amount, debt, total_debt);\n        return true;\n    }\n\n    function authorize(address account) external validateIsAdmin() validateAddress(account){\n        isAuthorized[account] = true;\n    }\n\n    function unauthorize(address account) external validateIsAdmin() validateNotAdmin(account) {\n        delete isAuthorized[account];\n    } \n\n    function updateMinimumColRatio(uint256 new_ratio) external validateAuthorization() validateMinimumColRatio(new_ratio) returns(bool) {\n        minimumColRatio = new_ratio;\n        return true;\n    }\n\n    function updateInterest(uint256 new_interest) external validateIsAdmin() returns(bool) {\n        interest = new_interest;\n        return true;\n    }\n\n    function updateInterestDuration(uint new_duration) external validateIsAdmin() returns(bool) {\n        interestDuration = new_duration;\n        return true;\n    }\n\n    function updateMaximumVault(uint8 new_max) external validateIsAdmin() validateNewMaxVault(new_max) returns(bool) {\n        maximumVaultPerUser = new_max;\n        return true;\n    }\n\n    function updateRegulatorPercentage(uint256 new_reg_perc) external validateIsAdmin() validateRegulatorPerc(new_reg_perc) returns(bool) {\n        regulatorPercentage = new_reg_perc;\n        return true;\n    }\n\n    function totalVaults() external view returns(uint) {\n        return VaultList.length;\n    }\n\n    function totalLockedCol() external view returns(uint) {\n        uint total = 0;\n        for(uint i = 0; i < VaultList.length; i++) {\n            if (VaultList[i].lck_collateral > 0) {\n                total += VaultList[i].lck_collateral;\n            }\n        }\n        return total;\n    }\n\n    function totalAvailableCol() external view returns(uint) {\n        uint total = 0;\n        for(uint i = 0; i < VaultList.length; i++) {\n            if (VaultList[i].avail_collateral > 0) {\n                total += VaultList[i].avail_collateral;\n            }\n        }\n        return total;\n    }\n\n    function userTotalLockedCol(address account) external view returns(uint) {\n        uint total = 0;\n        for(uint i = 0; i < getUserVaults(account).length; i++) {\n            if ( getUserVaults(account)[i].lck_collateral > 0) {\n                total += getUserVaults(account)[i].lck_collateral;\n            }\n        }\n        return total;\n    }\n\n    function userTotalAvailableCol(address account) external view returns(uint) {\n        uint total = 0;\n        for(uint i = 0; i < getUserVaults(account).length; i++) {\n            if (getUserVaults(account)[i].avail_collateral > 0) {\n                total += getUserVaults(account)[i].avail_collateral;\n            }\n        }\n        return total;\n    }\n\n    function userTotalDebt(address account) external view returns(uint) {\n        uint total = 0;\n        for(uint i = 0; i < getUserVaults(account).length; i++) {\n            if (getUserVaults(account)[i].debt > 0) {\n                total += getUserVaults(account)[i].debt;\n            }\n        }\n        return total;\n    }\n\n\n    function _closeVault(uint256 vault_id) internal {\n        uint conv_vault_id = sub(vault_id, 1);\n        address owner = VaultList[conv_vault_id].owner;\n        uint prev_lck_collateral = VaultList[conv_vault_id].lck_collateral;\n        VaultList[conv_vault_id].lck_collateral = 0;\n        VaultList[conv_vault_id].col_ratio = 0;\n        VaultList[conv_vault_id].closed_at = block.timestamp;\n        emit VaultClosure(owner, vault_id, block.timestamp, msg.sender, getRegulatorFee(prev_lck_collateral));\n    }\n\n    function inspectVault(uint256 vault_id) external validateAuthorization() validateVault(vault_id) validateVaultInspection(vault_id) returns(bool) {\n        uint conv_vault_id = sub(vault_id, 1);\n        uint lck_col =  VaultList[conv_vault_id].lck_collateral;\n        uint avail_col = VaultList[conv_vault_id].avail_collateral;\n        if(avail_col > 0) {\n            VaultList[conv_vault_id].avail_collateral = 0;\n            uint new_collateral = add(lck_col, avail_col);\n            VaultList[conv_vault_id].lck_collateral = new_collateral;\n            uint256 new_col_ratio = (new_collateral * 1000000000000000000)  / VaultList[conv_vault_id].debt;\n            VaultList[conv_vault_id].col_ratio = new_col_ratio;\n            if(new_col_ratio >= minimumColRatio) {\n               return true;\n            }else{\n                _closeVault(vault_id);\n                return false;\n            }\n        }else{\n            _closeVault(vault_id);\n            return false;\n        }\n    }\n\n    function allVaultsInLiquidation() external view returns(Vault [] memory) {\n        Vault[] memory list = new Vault [](VaultList.length);\n        for(uint i = 0; i < VaultList.length; i++) {\n            if (VaultList[i].closed_at == 0 && VaultList[i].col_ratio < minimumColRatio) {\n               list[i] = VaultList[i];\n            }\n        }\n        return list;   \n\n    }\n\n    function allHauntedVaults() external view returns(Vault [] memory) {\n        Vault[] memory list = new Vault [](VaultList.length);\n        for(uint i = 0; i < VaultList.length; i++) {\n            if (VaultList[i].closed_at > 0 && VaultList[i].debt > 0) {\n               list[i] = VaultList[i];\n            }\n        }\n        return list;   \n\n    }\n}",
  "sourcePath": "/home/mohzcrea9me/XDC/STB/stable-borrow-mvp/src/backend/contracts/Stb.sol",
  "compiler": {
    "name": "solc",
    "version": "0.8.17+commit.8df45f5f.Emscripten.clang"
  },
  "schemaVersion": "3.4.11",
  "updatedAt": "2023-05-28T18:41:06.916Z",
  "networkType": "ethereum",
  "devdoc": {
    "kind": "dev",
    "methods": {},
    "version": 1
  },
  "userdoc": {
    "kind": "user",
    "methods": {},
    "version": 1
  }
}