{
  "contractName": "STC",
  "abi": [
    {
      "inputs": [
        {
          "internalType": "string",
          "name": "token_name",
          "type": "string"
        },
        {
          "internalType": "string",
          "name": "token_symbol",
          "type": "string"
        }
      ],
      "stateMutability": "nonpayable",
      "type": "constructor"
    },
    {
      "anonymous": false,
      "inputs": [
        {
          "indexed": true,
          "internalType": "address",
          "name": "owner",
          "type": "address"
        },
        {
          "indexed": true,
          "internalType": "address",
          "name": "spender",
          "type": "address"
        },
        {
          "indexed": false,
          "internalType": "uint256",
          "name": "value",
          "type": "uint256"
        }
      ],
      "name": "Approval",
      "type": "event"
    },
    {
      "anonymous": false,
      "inputs": [
        {
          "indexed": true,
          "internalType": "address",
          "name": "from",
          "type": "address"
        },
        {
          "indexed": true,
          "internalType": "address",
          "name": "to",
          "type": "address"
        },
        {
          "indexed": false,
          "internalType": "uint256",
          "name": "value",
          "type": "uint256"
        }
      ],
      "name": "Transfer",
      "type": "event"
    },
    {
      "inputs": [],
      "name": "name",
      "outputs": [
        {
          "internalType": "string",
          "name": "",
          "type": "string"
        }
      ],
      "stateMutability": "view",
      "type": "function",
      "constant": true
    },
    {
      "inputs": [],
      "name": "symbol",
      "outputs": [
        {
          "internalType": "string",
          "name": "",
          "type": "string"
        }
      ],
      "stateMutability": "view",
      "type": "function",
      "constant": true
    },
    {
      "inputs": [],
      "name": "decimals",
      "outputs": [
        {
          "internalType": "uint8",
          "name": "",
          "type": "uint8"
        }
      ],
      "stateMutability": "pure",
      "type": "function",
      "constant": true
    },
    {
      "inputs": [],
      "name": "totalSupply",
      "outputs": [
        {
          "internalType": "uint256",
          "name": "",
          "type": "uint256"
        }
      ],
      "stateMutability": "view",
      "type": "function",
      "constant": true
    },
    {
      "inputs": [
        {
          "internalType": "address",
          "name": "account",
          "type": "address"
        }
      ],
      "name": "balanceOf",
      "outputs": [
        {
          "internalType": "uint256",
          "name": "",
          "type": "uint256"
        }
      ],
      "stateMutability": "view",
      "type": "function",
      "constant": true
    },
    {
      "inputs": [
        {
          "internalType": "address",
          "name": "owner",
          "type": "address"
        },
        {
          "internalType": "address",
          "name": "spender",
          "type": "address"
        }
      ],
      "name": "allowance",
      "outputs": [
        {
          "internalType": "uint256",
          "name": "",
          "type": "uint256"
        }
      ],
      "stateMutability": "view",
      "type": "function",
      "constant": true
    },
    {
      "inputs": [],
      "name": "admin",
      "outputs": [
        {
          "internalType": "address",
          "name": "",
          "type": "address"
        }
      ],
      "stateMutability": "view",
      "type": "function",
      "constant": true
    },
    {
      "inputs": [
        {
          "internalType": "address",
          "name": "account",
          "type": "address"
        }
      ],
      "name": "isAuthorized",
      "outputs": [
        {
          "internalType": "bool",
          "name": "",
          "type": "bool"
        }
      ],
      "stateMutability": "view",
      "type": "function",
      "constant": true
    },
    {
      "inputs": [
        {
          "internalType": "address",
          "name": "to",
          "type": "address"
        },
        {
          "internalType": "uint256",
          "name": "amount",
          "type": "uint256"
        }
      ],
      "name": "transfer",
      "outputs": [
        {
          "internalType": "bool",
          "name": "",
          "type": "bool"
        }
      ],
      "stateMutability": "nonpayable",
      "type": "function"
    },
    {
      "inputs": [
        {
          "internalType": "address",
          "name": "from",
          "type": "address"
        },
        {
          "internalType": "address",
          "name": "to",
          "type": "address"
        },
        {
          "internalType": "uint256",
          "name": "amount",
          "type": "uint256"
        }
      ],
      "name": "transferFrom",
      "outputs": [
        {
          "internalType": "bool",
          "name": "",
          "type": "bool"
        }
      ],
      "stateMutability": "nonpayable",
      "type": "function"
    },
    {
      "inputs": [
        {
          "internalType": "address",
          "name": "spender",
          "type": "address"
        },
        {
          "internalType": "uint256",
          "name": "amount",
          "type": "uint256"
        }
      ],
      "name": "approve",
      "outputs": [
        {
          "internalType": "bool",
          "name": "",
          "type": "bool"
        }
      ],
      "stateMutability": "nonpayable",
      "type": "function"
    },
    {
      "inputs": [
        {
          "internalType": "address",
          "name": "spender",
          "type": "address"
        },
        {
          "internalType": "uint256",
          "name": "amount",
          "type": "uint256"
        }
      ],
      "name": "increaseAllowance",
      "outputs": [
        {
          "internalType": "bool",
          "name": "",
          "type": "bool"
        }
      ],
      "stateMutability": "nonpayable",
      "type": "function"
    },
    {
      "inputs": [
        {
          "internalType": "address",
          "name": "spender",
          "type": "address"
        },
        {
          "internalType": "uint256",
          "name": "amount",
          "type": "uint256"
        }
      ],
      "name": "decreaseAllowance",
      "outputs": [
        {
          "internalType": "bool",
          "name": "",
          "type": "bool"
        }
      ],
      "stateMutability": "nonpayable",
      "type": "function"
    },
    {
      "inputs": [
        {
          "internalType": "address",
          "name": "account",
          "type": "address"
        },
        {
          "internalType": "uint256",
          "name": "amount",
          "type": "uint256"
        }
      ],
      "name": "mint",
      "outputs": [
        {
          "internalType": "bool",
          "name": "",
          "type": "bool"
        }
      ],
      "stateMutability": "nonpayable",
      "type": "function"
    },
    {
      "inputs": [
        {
          "internalType": "address",
          "name": "account",
          "type": "address"
        },
        {
          "internalType": "uint256",
          "name": "amount",
          "type": "uint256"
        }
      ],
      "name": "burn",
      "outputs": [
        {
          "internalType": "bool",
          "name": "",
          "type": "bool"
        }
      ],
      "stateMutability": "nonpayable",
      "type": "function"
    },
    {
      "inputs": [
        {
          "internalType": "address",
          "name": "account",
          "type": "address"
        }
      ],
      "name": "changeAdmin",
      "outputs": [],
      "stateMutability": "nonpayable",
      "type": "function"
    },
    {
      "inputs": [
        {
          "internalType": "address",
          "name": "account",
          "type": "address"
        }
      ],
      "name": "authorize",
      "outputs": [],
      "stateMutability": "nonpayable",
      "type": "function"
    },
    {
      "inputs": [
        {
          "internalType": "address",
          "name": "account",
          "type": "address"
        }
      ],
      "name": "unauthorize",
      "outputs": [],
      "stateMutability": "nonpayable",
      "type": "function"
    }
  ],
  "bytecode": "0x60806040523480156200001157600080fd5b50604051620028583803806200285883398181016040528101906200003791906200028f565b81600090816200004891906200055f565b5080600190816200005a91906200055f565b5033600360006101000a81548173ffffffffffffffffffffffffffffffffffffffff021916908373ffffffffffffffffffffffffffffffffffffffff1602179055506001600460003373ffffffffffffffffffffffffffffffffffffffff1673ffffffffffffffffffffffffffffffffffffffff16815260200190815260200160002060006101000a81548160ff021916908315150217905550505062000646565b6000604051905090565b600080fd5b600080fd5b600080fd5b600080fd5b6000601f19601f8301169050919050565b7f4e487b7100000000000000000000000000000000000000000000000000000000600052604160045260246000fd5b62000165826200011a565b810181811067ffffffffffffffff821117156200018757620001866200012b565b5b80604052505050565b60006200019c620000fc565b9050620001aa82826200015a565b919050565b600067ffffffffffffffff821115620001cd57620001cc6200012b565b5b620001d8826200011a565b9050602081019050919050565b60005b8381101562000205578082015181840152602081019050620001e8565b60008484015250505050565b6000620002286200022284620001af565b62000190565b90508281526020810184848401111562000247576200024662000115565b5b62000254848285620001e5565b509392505050565b600082601f83011262000274576200027362000110565b5b81516200028684826020860162000211565b91505092915050565b60008060408385031215620002a957620002a862000106565b5b600083015167ffffffffffffffff811115620002ca57620002c96200010b565b5b620002d8858286016200025c565b925050602083015167ffffffffffffffff811115620002fc57620002fb6200010b565b5b6200030a858286016200025c565b9150509250929050565b600081519050919050565b7f4e487b7100000000000000000000000000000000000000000000000000000000600052602260045260246000fd5b600060028204905060018216806200036757607f821691505b6020821081036200037d576200037c6200031f565b5b50919050565b60008190508160005260206000209050919050565b60006020601f8301049050919050565b600082821b905092915050565b600060088302620003e77fffffffffffffffffffffffffffffffffffffffffffffffffffffffffffffffff82620003a8565b620003f38683620003a8565b95508019841693508086168417925050509392505050565b6000819050919050565b6000819050919050565b6000620004406200043a62000434846200040b565b62000415565b6200040b565b9050919050565b6000819050919050565b6200045c836200041f565b620004746200046b8262000447565b848454620003b5565b825550505050565b600090565b6200048b6200047c565b6200049881848462000451565b505050565b5b81811015620004c057620004b460008262000481565b6001810190506200049e565b5050565b601f8211156200050f57620004d98162000383565b620004e48462000398565b81016020851015620004f4578190505b6200050c620005038562000398565b8301826200049d565b50505b505050565b600082821c905092915050565b6000620005346000198460080262000514565b1980831691505092915050565b60006200054f838362000521565b9150826002028217905092915050565b6200056a8262000314565b67ffffffffffffffff8111156200058657620005856200012b565b5b6200059282546200034e565b6200059f828285620004c4565b600060209050601f831160018114620005d75760008415620005c2578287015190505b620005ce858262000541565b8655506200063e565b601f198416620005e78662000383565b60005b828110156200061157848901518255600182019150602085019450602081019050620005ea565b868310156200063157848901516200062d601f89168262000521565b8355505b6001600288020188555050505b505050505050565b61220280620006566000396000f3fe608060405234801561001057600080fd5b50600436106101165760003560e01c806395d89b41116100a2578063b6a5d7de11610071578063b6a5d7de1461032f578063dd62ed3e1461034b578063f0b37c041461037b578063f851a44014610397578063fe9fbb80146103b557610116565b806395d89b41146102815780639dc29fac1461029f578063a457c2d7146102cf578063a9059cbb146102ff57610116565b8063313ce567116100e9578063313ce567146101b757806339509351146101d557806340c10f191461020557806370a08231146102355780638f2839701461026557610116565b806306fdde031461011b578063095ea7b31461013957806318160ddd1461016957806323b872dd14610187575b600080fd5b6101236103e5565b60405161013091906119c9565b60405180910390f35b610153600480360381019061014e9190611a84565b610477565b6040516101609190611adf565b60405180910390f35b610171610493565b60405161017e9190611b09565b60405180910390f35b6101a1600480360381019061019c9190611b24565b61049d565b6040516101ae9190611adf565b60405180910390f35b6101bf6104c5565b6040516101cc9190611b93565b60405180910390f35b6101ef60048036038101906101ea9190611a84565b6104ce565b6040516101fc9190611adf565b60405180910390f35b61021f600480360381019061021a9190611a84565b61057b565b60405161022c9190611adf565b60405180910390f35b61024f600480360381019061024a9190611bae565b61078f565b60405161025c9190611b09565b60405180910390f35b61027f600480360381019061027a9190611bae565b6107d8565b005b6102896109ec565b60405161029691906119c9565b60405180910390f35b6102b960048036038101906102b49190611a84565b610a7e565b6040516102c69190611adf565b60405180910390f35b6102e960048036038101906102e49190611a84565b610cca565b6040516102f69190611adf565b60405180910390f35b61031960048036038101906103149190611a84565b610e3d565b6040516103269190611adf565b60405180910390f35b61034960048036038101906103449190611bae565b610e59565b005b61036560048036038101906103609190611bdb565b610fb5565b6040516103729190611b09565b60405180910390f35b61039560048036038101906103909190611bae565b61103c565b005b61039f6111b0565b6040516103ac9190611c2a565b60405180910390f35b6103cf60048036038101906103ca9190611bae565b6111da565b6040516103dc9190611adf565b60405180910390f35b6060600080546103f490611c74565b80601f016020809104026020016040519081016040528092919081815260200182805461042090611c74565b801561046d5780601f106104425761010080835404028352916020019161046d565b820191906000526020600020905b81548152906001019060200180831161045057829003601f168201915b5050505050905090565b600080339050610488818585611230565b600191505092915050565b6000600254905090565b6000803390506104ae8582856113fd565b6104b9858585611591565b60019150509392505050565b60006012905090565b6000803390506000600660008373ffffffffffffffffffffffffffffffffffffffff1673ffffffffffffffffffffffffffffffffffffffff16815260200190815260200160002060008673ffffffffffffffffffffffffffffffffffffffff1673ffffffffffffffffffffffffffffffffffffffff16815260200190815260200160002054905060006105618286611887565b905061056e838783611230565b6001935050505092915050565b600060011515600460003373ffffffffffffffffffffffffffffffffffffffff1673ffffffffffffffffffffffffffffffffffffffff16815260200190815260200160002060009054906101000a900460ff16151514610610576040517f08c379a000000000000000000000000000000000000000000000000000000000815260040161060790611d17565b60405180910390fd5b82600073ffffffffffffffffffffffffffffffffffffffff168173ffffffffffffffffffffffffffffffffffffffff1603610680576040517f08c379a000000000000000000000000000000000000000000000000000000000815260040161067790611d83565b60405180910390fd5b61068c60025484611887565b6002819055506106db600560008673ffffffffffffffffffffffffffffffffffffffff1673ffffffffffffffffffffffffffffffffffffffff1681526020019081526020016000205484611887565b600560008673ffffffffffffffffffffffffffffffffffffffff1673ffffffffffffffffffffffffffffffffffffffff168152602001908152602001600020819055508373ffffffffffffffffffffffffffffffffffffffff16600073ffffffffffffffffffffffffffffffffffffffff167fddf252ad1be2c89b69c2b068fc378daa952ba7f163c4a11628f55a4df523b3ef8560405161077c9190611b09565b60405180910390a3600191505092915050565b6000600560008373ffffffffffffffffffffffffffffffffffffffff1673ffffffffffffffffffffffffffffffffffffffff168152602001908152602001600020549050919050565b600360009054906101000a900473ffffffffffffffffffffffffffffffffffffffff1673ffffffffffffffffffffffffffffffffffffffff163373ffffffffffffffffffffffffffffffffffffffff1614610868576040517f08c379a000000000000000000000000000000000000000000000000000000000815260040161085f90611e15565b60405180910390fd5b80600073ffffffffffffffffffffffffffffffffffffffff168173ffffffffffffffffffffffffffffffffffffffff16036108d8576040517f08c379a00000000000000000000000000000000000000000000000000000000081526004016108cf90611d83565b60405180910390fd5b6000600360009054906101000a900473ffffffffffffffffffffffffffffffffffffffff16905082600360006101000a81548173ffffffffffffffffffffffffffffffffffffffff021916908373ffffffffffffffffffffffffffffffffffffffff1602179055506001600460008573ffffffffffffffffffffffffffffffffffffffff1673ffffffffffffffffffffffffffffffffffffffff16815260200190815260200160002060006101000a81548160ff021916908315150217905550600460008273ffffffffffffffffffffffffffffffffffffffff1673ffffffffffffffffffffffffffffffffffffffff16815260200190815260200160002060006101000a81549060ff0219169055505050565b6060600180546109fb90611c74565b80601f0160208091040260200160405190810160405280929190818152602001828054610a2790611c74565b8015610a745780601f10610a4957610100808354040283529160200191610a74565b820191906000526020600020905b815481529060010190602001808311610a5757829003601f168201915b5050505050905090565b600082600073ffffffffffffffffffffffffffffffffffffffff168173ffffffffffffffffffffffffffffffffffffffff1603610af0576040517f08c379a0000000000000000000000000000000000000000000000000000000008152600401610ae790611d83565b60405180910390fd5b838380600560008473ffffffffffffffffffffffffffffffffffffffff1673ffffffffffffffffffffffffffffffffffffffff168152602001908152602001600020541015610b74576040517f08c379a0000000000000000000000000000000000000000000000000000000008152600401610b6b90611ea7565b60405180910390fd5b8573ffffffffffffffffffffffffffffffffffffffff163373ffffffffffffffffffffffffffffffffffffffff1614610bb357610bb28633876113fd565b5b6000600560008873ffffffffffffffffffffffffffffffffffffffff1673ffffffffffffffffffffffffffffffffffffffff168152602001908152602001600020549050610c0181876118e0565b600560008973ffffffffffffffffffffffffffffffffffffffff1673ffffffffffffffffffffffffffffffffffffffff16815260200190815260200160002081905550610c50600254876118e0565b600281905550600073ffffffffffffffffffffffffffffffffffffffff168773ffffffffffffffffffffffffffffffffffffffff167fddf252ad1be2c89b69c2b068fc378daa952ba7f163c4a11628f55a4df523b3ef88604051610cb49190611b09565b60405180910390a3600194505050505092915050565b600033838380600660008573ffffffffffffffffffffffffffffffffffffffff1673ffffffffffffffffffffffffffffffffffffffff16815260200190815260200160002060008473ffffffffffffffffffffffffffffffffffffffff1673ffffffffffffffffffffffffffffffffffffffff168152602001908152602001600020541015610d8e576040517f08c379a0000000000000000000000000000000000000000000000000000000008152600401610d8590611f5f565b60405180910390fd5b60003390506000600660008373ffffffffffffffffffffffffffffffffffffffff1673ffffffffffffffffffffffffffffffffffffffff16815260200190815260200160002060008973ffffffffffffffffffffffffffffffffffffffff1673ffffffffffffffffffffffffffffffffffffffff1681526020019081526020016000205490506000610e2082896118e0565b9050610e2d838a83611230565b6001965050505050505092915050565b600080339050610e4e818585611591565b600191505092915050565b600360009054906101000a900473ffffffffffffffffffffffffffffffffffffffff1673ffffffffffffffffffffffffffffffffffffffff163373ffffffffffffffffffffffffffffffffffffffff1614610ee9576040517f08c379a0000000000000000000000000000000000000000000000000000000008152600401610ee090611e15565b60405180910390fd5b80600073ffffffffffffffffffffffffffffffffffffffff168173ffffffffffffffffffffffffffffffffffffffff1603610f59576040517f08c379a0000000000000000000000000000000000000000000000000000000008152600401610f5090611d83565b60405180910390fd5b6001600460008473ffffffffffffffffffffffffffffffffffffffff1673ffffffffffffffffffffffffffffffffffffffff16815260200190815260200160002060006101000a81548160ff0219169083151502179055505050565b6000600660008473ffffffffffffffffffffffffffffffffffffffff1673ffffffffffffffffffffffffffffffffffffffff16815260200190815260200160002060008373ffffffffffffffffffffffffffffffffffffffff1673ffffffffffffffffffffffffffffffffffffffff16815260200190815260200160002054905092915050565b600360009054906101000a900473ffffffffffffffffffffffffffffffffffffffff1673ffffffffffffffffffffffffffffffffffffffff163373ffffffffffffffffffffffffffffffffffffffff16146110cc576040517f08c379a00000000000000000000000000000000000000000000000000000000081526004016110c390611e15565b60405180910390fd5b80600360009054906101000a900473ffffffffffffffffffffffffffffffffffffffff1673ffffffffffffffffffffffffffffffffffffffff168173ffffffffffffffffffffffffffffffffffffffff160361115d576040517f08c379a000000000000000000000000000000000000000000000000000000000815260040161115490611ff1565b60405180910390fd5b600460008373ffffffffffffffffffffffffffffffffffffffff1673ffffffffffffffffffffffffffffffffffffffff16815260200190815260200160002060006101000a81549060ff02191690555050565b6000600360009054906101000a900473ffffffffffffffffffffffffffffffffffffffff16905090565b6000600460008373ffffffffffffffffffffffffffffffffffffffff1673ffffffffffffffffffffffffffffffffffffffff16815260200190815260200160002060009054906101000a900460ff169050919050565b82600073ffffffffffffffffffffffffffffffffffffffff168173ffffffffffffffffffffffffffffffffffffffff16036112a0576040517f08c379a000000000000000000000000000000000000000000000000000000000815260040161129790611d83565b60405180910390fd5b82600073ffffffffffffffffffffffffffffffffffffffff168173ffffffffffffffffffffffffffffffffffffffff1603611310576040517f08c379a000000000000000000000000000000000000000000000000000000000815260040161130790611d83565b60405180910390fd5b82600660008773ffffffffffffffffffffffffffffffffffffffff1673ffffffffffffffffffffffffffffffffffffffff16815260200190815260200160002060008673ffffffffffffffffffffffffffffffffffffffff1673ffffffffffffffffffffffffffffffffffffffff168152602001908152602001600020819055508373ffffffffffffffffffffffffffffffffffffffff168573ffffffffffffffffffffffffffffffffffffffff167f8c5be1e5ebec7d5bd14f71427d1e84f3dd0314c0f7b2291e5b200ac8c7c3b925856040516113ee9190611b09565b60405180910390a35050505050565b82828280600660008573ffffffffffffffffffffffffffffffffffffffff1673ffffffffffffffffffffffffffffffffffffffff16815260200190815260200160002060008473ffffffffffffffffffffffffffffffffffffffff1673ffffffffffffffffffffffffffffffffffffffff1681526020019081526020016000205410156114bf576040517f08c379a00000000000000000000000000000000000000000000000000000000081526004016114b690611f5f565b60405180910390fd5b6000600660008873ffffffffffffffffffffffffffffffffffffffff1673ffffffffffffffffffffffffffffffffffffffff16815260200190815260200160002060008773ffffffffffffffffffffffffffffffffffffffff1673ffffffffffffffffffffffffffffffffffffffff16815260200190815260200160002054905060007fffffffffffffffffffffffffffffffffffffffffffffffffffffffffffffffff905080821461158757600061157883886118e0565b9050611585898983611230565b505b5050505050505050565b82600073ffffffffffffffffffffffffffffffffffffffff168173ffffffffffffffffffffffffffffffffffffffff1603611601576040517f08c379a00000000000000000000000000000000000000000000000000000000081526004016115f890611d83565b60405180910390fd5b82600073ffffffffffffffffffffffffffffffffffffffff168173ffffffffffffffffffffffffffffffffffffffff1603611671576040517f08c379a000000000000000000000000000000000000000000000000000000000815260040161166890611d83565b60405180910390fd5b848380600560008473ffffffffffffffffffffffffffffffffffffffff1673ffffffffffffffffffffffffffffffffffffffff1681526020019081526020016000205410156116f5576040517f08c379a00000000000000000000000000000000000000000000000000000000081526004016116ec90611ea7565b60405180910390fd5b6000600560008973ffffffffffffffffffffffffffffffffffffffff1673ffffffffffffffffffffffffffffffffffffffff16815260200190815260200160002054905061174381876118e0565b600560008a73ffffffffffffffffffffffffffffffffffffffff1673ffffffffffffffffffffffffffffffffffffffff168152602001908152602001600020819055506000600560008973ffffffffffffffffffffffffffffffffffffffff1673ffffffffffffffffffffffffffffffffffffffff1681526020019081526020016000205490506117d48188611887565b600560008a73ffffffffffffffffffffffffffffffffffffffff1673ffffffffffffffffffffffffffffffffffffffff168152602001908152602001600020819055508773ffffffffffffffffffffffffffffffffffffffff168973ffffffffffffffffffffffffffffffffffffffff167fddf252ad1be2c89b69c2b068fc378daa952ba7f163c4a11628f55a4df523b3ef896040516118749190611b09565b60405180910390a3505050505050505050565b60008282846118969190612040565b91508110156118da576040517f08c379a00000000000000000000000000000000000000000000000000000000081526004016118d1906120e6565b60405180910390fd5b92915050565b60008282846118ef9190612106565b9150811115611933576040517f08c379a000000000000000000000000000000000000000000000000000000000815260040161192a906121ac565b60405180910390fd5b92915050565b600081519050919050565b600082825260208201905092915050565b60005b83811015611973578082015181840152602081019050611958565b60008484015250505050565b6000601f19601f8301169050919050565b600061199b82611939565b6119a58185611944565b93506119b5818560208601611955565b6119be8161197f565b840191505092915050565b600060208201905081810360008301526119e38184611990565b905092915050565b600080fd5b600073ffffffffffffffffffffffffffffffffffffffff82169050919050565b6000611a1b826119f0565b9050919050565b611a2b81611a10565b8114611a3657600080fd5b50565b600081359050611a4881611a22565b92915050565b6000819050919050565b611a6181611a4e565b8114611a6c57600080fd5b50565b600081359050611a7e81611a58565b92915050565b60008060408385031215611a9b57611a9a6119eb565b5b6000611aa985828601611a39565b9250506020611aba85828601611a6f565b9150509250929050565b60008115159050919050565b611ad981611ac4565b82525050565b6000602082019050611af46000830184611ad0565b92915050565b611b0381611a4e565b82525050565b6000602082019050611b1e6000830184611afa565b92915050565b600080600060608486031215611b3d57611b3c6119eb565b5b6000611b4b86828701611a39565b9350506020611b5c86828701611a39565b9250506040611b6d86828701611a6f565b9150509250925092565b600060ff82169050919050565b611b8d81611b77565b82525050565b6000602082019050611ba86000830184611b84565b92915050565b600060208284031215611bc457611bc36119eb565b5b6000611bd284828501611a39565b91505092915050565b60008060408385031215611bf257611bf16119eb565b5b6000611c0085828601611a39565b9250506020611c1185828601611a39565b9150509250929050565b611c2481611a10565b82525050565b6000602082019050611c3f6000830184611c1b565b92915050565b7f4e487b7100000000000000000000000000000000000000000000000000000000600052602260045260246000fd5b60006002820490506001821680611c8c57607f821691505b602082108103611c9f57611c9e611c45565b5b50919050565b7f4552525f333a204f6e6c7920617574686f72697a65642075736572732063616e60008201527f2063616c6c20746869732066756e6374696f6e00000000000000000000000000602082015250565b6000611d01603383611944565b9150611d0c82611ca5565b604082019050919050565b60006020820190508181036000830152611d3081611cf4565b9050919050565b7f4552525f313a20496e76616c6964206164647265737320706173736564000000600082015250565b6000611d6d601d83611944565b9150611d7882611d37565b602082019050919050565b60006020820190508181036000830152611d9c81611d60565b9050919050565b7f4552525f323a204f6e6c7920636f6e74726163742061646d696e2063616e206360008201527f616c6c20746869732066756e6374696f6e000000000000000000000000000000602082015250565b6000611dff603183611944565b9150611e0a82611da3565b604082019050919050565b60006020820190508181036000830152611e2e81611df2565b9050919050565b7f4552525f353a20696e73756666696369656e742062616c616e6365287472616e60008201527f7366657220616d6f756e7420657863656564732062616c616e63652900000000602082015250565b6000611e91603c83611944565b9150611e9c82611e35565b604082019050919050565b60006020820190508181036000830152611ec081611e84565b9050919050565b7f4552525f363a20696e73756666696369656e7420616c6c6f77616e636528637560008201527f7272656e7420616c6c6f77616e6365206973206c6573736572207468616e206160208201527f6d6f756e74207061737365642900000000000000000000000000000000000000604082015250565b6000611f49604d83611944565b9150611f5482611ec7565b606082019050919050565b60006020820190508181036000830152611f7881611f3c565b9050919050565b7f4552525f343a2043616e277420756e617574686f72697a6520636f6e7472616360008201527f742061646d696e00000000000000000000000000000000000000000000000000602082015250565b6000611fdb602783611944565b9150611fe682611f7f565b604082019050919050565b6000602082019050818103600083015261200a81611fce565b9050919050565b7f4e487b7100000000000000000000000000000000000000000000000000000000600052601160045260246000fd5b600061204b82611a4e565b915061205683611a4e565b925082820190508082111561206e5761206d612011565b5b92915050565b7f4d4154485f4552525f313a206164646974696f6e206f766572666c6f77206f6360008201527f6375726564000000000000000000000000000000000000000000000000000000602082015250565b60006120d0602583611944565b91506120db82612074565b604082019050919050565b600060208201905081810360008301526120ff816120c3565b9050919050565b600061211182611a4e565b915061211c83611a4e565b925082820390508181111561213457612133612011565b5b92915050565b7f4d4154485f4552525f323a2073756274726174696f6e20756e646572666c6f7760008201527f206f636375726564000000000000000000000000000000000000000000000000602082015250565b6000612196602883611944565b91506121a18261213a565b604082019050919050565b600060208201905081810360008301526121c581612189565b905091905056fea2646970667358221220a6021c2ce008daeccfcdcf38a3ea2093173c34604be992e119fe736b5feb1a5064736f6c63430008110033",
  "immutableReferences": {},
  "source": "// Official contract for stable xrc token by mohzcrea8me\n//A $DAI like token that follows XRC20 token standards as stated on xdc docs:\n//visit https://docs.xdc.community/get-details/smart-contract-details/xrc-standards/xrc20 and more\n\n// SPDX-License-Identifier: MIT\npragma solidity >=0.5.11 < 0.9.0;\n\ninterface ISTC {\n    function totalSupply() external view returns (uint256);\n    function balanceOf(address account) external view returns (uint256);\n    function transfer(address to, uint256 amount) external returns (bool);\n    function allowance(address owner, address spender) external view returns (uint256);\n    function approve(address spender, uint256 amount) external returns (bool);\n    function transferFrom(\n        address from,\n        address to,\n        uint256 amount\n    ) external returns (bool);\n    function mint(address account, uint256 amount) external returns(bool);\n    function burn(address account, uint256 amount) external returns(bool);\n}\n\ncontract STC {\n\n    string  private _name;\n    string  private _symbol;\n    uint256 private _totalSupply;\n    address private _admin; //contract admin\n    mapping (address => bool) private _isAuthorized; //authorized account to perform special functions\n    mapping(address => uint256) private _balances; //account balances\n    mapping(address => mapping(address => uint256)) private _allowances;\n    event Transfer(address indexed from, address indexed to, uint256 value);\n    event Approval(address indexed owner, address indexed spender, uint256 value);\n\n\n    constructor(string memory token_name, string memory token_symbol )  {\n        _name = token_name;\n        _symbol = token_symbol;\n        _admin = msg.sender;\n        _isAuthorized[msg.sender] = true;\n    }\n\n//-----READ FUNCTIONS-------\n    function name() external view returns (string memory) {\n        return _name;\n    }\n\n    function symbol() external view returns (string memory) {\n        return _symbol;\n    }\n\n    function decimals() external pure returns (uint8) {\n        return 18;\n    }\n\n    function totalSupply() external view returns (uint256) {\n        return _totalSupply;\n    }\n\n    function balanceOf(address account) external view returns (uint256) {\n        return _balances[account];\n    }\n\n    function allowance(address owner, address spender) external view  returns (uint256) {\n        return _allowances[owner][spender];\n    }\n\n    function admin() external view returns(address) {\n        return _admin;\n    }\n\n    function isAuthorized(address account) external  view returns(bool) {\n        return _isAuthorized[account];\n    }\n\n//------MODIFIERS---------\n    modifier validateAddress(address account) {\n        require(account != address(0), \"ERR_1: Invalid address passed\");\n        _;\n    }\n\n    modifier isAdmin() {\n        require(msg.sender == _admin, \"ERR_2: Only contract admin can call this function\");\n        _;\n    }\n\n    modifier authorized() {\n        require(_isAuthorized[msg.sender] == true, \"ERR_3: Only authorized users can call this function\");\n        _;\n    }\n\n    modifier validateNotAdmin(address account) {\n        require(account != _admin, \"ERR_4: Can't unauthorize contract admin\");\n        _;\n    }\n\n    modifier validateBalance(address account, uint256 amount) {\n        require(_balances[account] >= amount, \"ERR_5: insufficient balance(transfer amount exceeds balance)\");\n        _;\n    }\n\n    modifier validateAllowance(address owner, address spender, uint256 amount) {\n       require(_allowances[owner][spender] >= amount, \"ERR_6: insufficient allowance(current allowance is lesser than amount passed)\");\n        _;\n    }\n\n\n//-------MATH(LIKE SAFEMATH)----\n    function add(uint a, uint b) internal pure returns (uint c) {\n        require((c = a + b) >= a, \"MATH_ERR_1: addition overflow occured\");\n    }\n    function sub(uint a, uint b) internal pure returns (uint c) {\n        require((c = a - b) <= a, \"MATH_ERR_2: subtration underflow occured\");\n    }\n    \n//-------WRITE FUNCTIONS-----\n    function transfer(address to, uint256 amount) external returns(bool) {\n        address owner = msg.sender;\n        _transfer(owner, to, amount);\n        return true;\n\n    }\n\n    function transferFrom(\n        address from,\n        address to,\n        uint256 amount\n    ) external returns (bool) {\n        address spender = msg.sender;\n        _spendAllowance(from, spender, amount);\n        _transfer(from, to, amount);\n        return true;\n    }\n\n    function approve(address spender, uint256 amount) external returns (bool) {\n        address owner = msg.sender;\n        _approve(owner, spender, amount);\n        return true;\n    }\n\n    function increaseAllowance(address spender, uint256 amount) external returns (bool) {\n        address owner = msg.sender;\n        uint256 currentAllowance = _allowances[owner][spender];\n        uint256 newAllowance = add(currentAllowance,  amount);\n        _approve(owner, spender, newAllowance);\n        return true;\n    }\n\n    function decreaseAllowance(address spender, uint256 amount) external validateAllowance(msg.sender, spender, amount) returns (bool) {\n        address owner = msg.sender;\n        uint256 currentAllowance = _allowances[owner][spender];\n        uint256 newAllowance = sub(currentAllowance, amount);\n        _approve(owner, spender, newAllowance);\n        return true;\n    }\n\n    function mint(address account, uint256 amount) external authorized() validateAddress(account) returns(bool) {\n        _totalSupply = add(_totalSupply, amount);\n        _balances[account] = add(_balances[account], amount);\n        emit Transfer(address(0), account, amount);\n        return true;\n    }\n\n    function burn(address account, uint256 amount) external validateAddress(account) validateBalance(account, amount) returns(bool) {\n       if (msg.sender != account) {\n           _spendAllowance(account, msg.sender, amount);\n       }\n        uint256 accountBalance = _balances[account];\n        _balances[account] = sub(accountBalance, amount);\n        _totalSupply = sub(_totalSupply, amount);\n        emit Transfer(account, address(0), amount);\n        return true;\n    }\n\n    function _transfer(\n        address from,\n        address to,\n        uint256 amount\n    ) internal validateAddress(from) validateAddress(to) validateBalance(from, amount) {\n        uint256 senderBalance = _balances[from];\n        _balances[from] = sub(senderBalance, amount);\n        uint256 receiverBalance = _balances[to];\n        _balances[to] = add(receiverBalance, amount);\n        emit Transfer(from, to, amount);\n    }\n\n    function _spendAllowance(\n        address owner,\n        address spender,\n        uint256 amount\n    ) internal validateAllowance(owner, spender, amount) {\n        uint256 currentAllowance =  _allowances[owner][spender];\n        uint256 maxUint256 = type(uint256).max;\n        if (currentAllowance != maxUint256) {\n            uint256 newAllowance = sub(currentAllowance, amount);\n            _approve(owner, spender, newAllowance);\n           \n        }\n    }\n\n    function _approve(\n        address owner,\n        address spender,\n        uint256 amount\n    ) internal validateAddress(owner) validateAddress(spender)  {\n        _allowances[owner][spender] = amount;\n        emit Approval(owner, spender, amount);\n    }\n\n    function changeAdmin(address account) external isAdmin() validateAddress(account) {\n        address prevAdmin = _admin;\n        _admin = account;\n        _isAuthorized[account] = true;\n        delete _isAuthorized[prevAdmin];\n    }\n\n    function authorize(address account) external isAdmin() validateAddress(account){\n        _isAuthorized[account] = true;\n    }\n\n    function unauthorize(address account) external isAdmin() validateNotAdmin(account) {\n        delete _isAuthorized[account];\n    } \n\n}",
  "sourcePath": "/home/mohzcrea9me/XDC/STB/stable-borrow-mvp/src/backend/contracts/Stc.sol",
  "compiler": {
    "name": "solc",
    "version": "0.8.17+commit.8df45f5f.Emscripten.clang"
  },
  "schemaVersion": "3.4.11",
  "updatedAt": "2023-05-21T16:57:40.642Z",
  "networkType": "ethereum",
  "devdoc": {
    "kind": "dev",
    "methods": {},
    "version": 1
  },
  "userdoc": {
    "kind": "user",
    "methods": {},
    "version": 1
  }
}